{
  "contractName": "Muse",
  "abi": [
    {
      "inputs": [
        {
          "internalType": "string",
          "name": "title",
          "type": "string"
        },
        {
          "internalType": "string",
          "name": "author",
          "type": "string"
        },
        {
          "internalType": "int256",
          "name": "category",
          "type": "int256"
        },
        {
          "internalType": "int256",
          "name": "ismn",
          "type": "int256"
        },
        {
          "internalType": "string",
          "name": "link",
          "type": "string"
        },
        {
          "internalType": "string",
          "name": "passcode",
          "type": "string"
        },
        {
          "internalType": "uint256",
          "name": "price",
          "type": "uint256"
        }
      ],
      "name": "addSong",
      "outputs": [],
      "stateMutability": "nonpayable",
      "type": "function"
    },
    {
      "inputs": [
        {
          "internalType": "int256",
          "name": "ismn",
          "type": "int256"
        }
      ],
      "name": "getSong",
      "outputs": [
        {
          "components": [
            {
              "internalType": "int256",
              "name": "ismn",
              "type": "int256"
            },
            {
              "internalType": "bool",
              "name": "exists",
              "type": "bool"
            },
            {
              "components": [
                {
                  "internalType": "string",
                  "name": "title",
                  "type": "string"
                },
                {
                  "internalType": "string",
                  "name": "author",
                  "type": "string"
                },
                {
                  "internalType": "enum Muse.Category",
                  "name": "category",
                  "type": "uint8"
                }
              ],
              "internalType": "struct Muse.Description",
              "name": "description",
              "type": "tuple"
            },
            {
              "components": [
                {
                  "internalType": "string",
                  "name": "link",
                  "type": "string"
                },
                {
                  "internalType": "string",
                  "name": "passcode",
                  "type": "string"
                },
                {
                  "internalType": "bool",
                  "name": "available",
                  "type": "bool"
                },
                {
                  "internalType": "uint256",
                  "name": "price",
                  "type": "uint256"
                },
                {
                  "internalType": "address payable",
                  "name": "owner",
                  "type": "address"
                }
              ],
              "internalType": "struct Muse.Details",
              "name": "details",
              "type": "tuple"
            }
          ],
          "internalType": "struct Muse.Song",
          "name": "",
          "type": "tuple"
        }
      ],
      "stateMutability": "view",
      "type": "function",
      "constant": true
    },
    {
      "inputs": [
        {
          "internalType": "int256",
          "name": "ismn",
          "type": "int256"
        }
      ],
      "name": "deleteSong",
      "outputs": [],
      "stateMutability": "nonpayable",
      "type": "function"
    },
    {
      "inputs": [],
      "name": "getSongCount",
      "outputs": [
        {
          "internalType": "uint256",
          "name": "",
          "type": "uint256"
        }
      ],
      "stateMutability": "view",
      "type": "function",
      "constant": true
    },
    {
      "inputs": [],
      "name": "getAllSongs",
      "outputs": [
        {
          "components": [
            {
              "internalType": "int256",
              "name": "ismn",
              "type": "int256"
            },
            {
              "internalType": "bool",
              "name": "exists",
              "type": "bool"
            },
            {
              "components": [
                {
                  "internalType": "string",
                  "name": "title",
                  "type": "string"
                },
                {
                  "internalType": "string",
                  "name": "author",
                  "type": "string"
                },
                {
                  "internalType": "enum Muse.Category",
                  "name": "category",
                  "type": "uint8"
                }
              ],
              "internalType": "struct Muse.Description",
              "name": "description",
              "type": "tuple"
            },
            {
              "components": [
                {
                  "internalType": "string",
                  "name": "link",
                  "type": "string"
                },
                {
                  "internalType": "string",
                  "name": "passcode",
                  "type": "string"
                },
                {
                  "internalType": "bool",
                  "name": "available",
                  "type": "bool"
                },
                {
                  "internalType": "uint256",
                  "name": "price",
                  "type": "uint256"
                },
                {
                  "internalType": "address payable",
                  "name": "owner",
                  "type": "address"
                }
              ],
              "internalType": "struct Muse.Details",
              "name": "details",
              "type": "tuple"
            }
          ],
          "internalType": "struct Muse.Song[]",
          "name": "",
          "type": "tuple[]"
        }
      ],
      "stateMutability": "view",
      "type": "function",
      "constant": true
    },
    {
      "inputs": [],
      "name": "getPurchasedSongs",
      "outputs": [
        {
          "internalType": "int256[]",
          "name": "",
          "type": "int256[]"
        }
      ],
      "stateMutability": "view",
      "type": "function",
      "constant": true
    },
    {
      "inputs": [],
      "name": "getPurchasedSongCount",
      "outputs": [
        {
          "internalType": "uint256",
          "name": "",
          "type": "uint256"
        }
      ],
      "stateMutability": "view",
      "type": "function",
      "constant": true
    },
    {
      "inputs": [],
      "name": "getCreatedSongs",
      "outputs": [
        {
          "internalType": "int256[]",
          "name": "",
          "type": "int256[]"
        }
      ],
      "stateMutability": "view",
      "type": "function",
      "constant": true
    },
    {
      "inputs": [],
      "name": "getCreatedSongCount",
      "outputs": [
        {
          "internalType": "uint256",
          "name": "",
          "type": "uint256"
        }
      ],
      "stateMutability": "view",
      "type": "function",
      "constant": true
    },
    {
      "inputs": [
        {
          "internalType": "int256",
          "name": "ismn",
          "type": "int256"
        }
      ],
      "name": "addPurchase",
      "outputs": [],
      "stateMutability": "payable",
      "type": "function",
      "payable": true
    }
  ],
  "bytecode": "0x608060405234801561001057600080fd5b50613175806100206000396000f3fe6080604052600436106100915760003560e01c806366901d881161005957806366901d881461017d57806367c380f2146101a8578063819325f5146101c4578063b8321bc8146101ed578063ca487ad91461021857610091565b80630be227921461009657806329ef6862146100d35780633bcea2fe146100fe5780635562d8e51461012957806358084ced14610152575b600080fd5b3480156100a257600080fd5b506100bd60048036038101906100b891906127c0565b610243565b6040516100ca9190612f05565b60405180910390f35b3480156100df57600080fd5b506100e86109d7565b6040516100f59190612e03565b60405180910390f35b34801561010a57600080fd5b50610113610db3565b6040516101209190612f27565b60405180910390f35b34801561013557600080fd5b50610150600480360381019061014b91906127e9565b610e00565b005b34801561015e57600080fd5b50610167611328565b6040516101749190612f27565b60405180910390f35b34801561018957600080fd5b50610192611375565b60405161019f9190612de1565b60405180910390f35b6101c260048036038101906101bd91906127c0565b61140d565b005b3480156101d057600080fd5b506101eb60048036038101906101e691906127c0565b6114f8565b005b3480156101f957600080fd5b5061020261215c565b60405161020f9190612de1565b60405180910390f35b34801561022457600080fd5b5061022d6121f4565b60405161023a9190612f27565b60405180910390f35b61024b61252d565b8161025461252d565b600080838152602001908152602001600020604051806080016040529081600082015481526020016001820160009054906101000a900460ff1615151515815260200160028201604051806060016040529081600082018054600181600116156101000203166002900480601f01602080910402602001604051908101604052809291908181526020018280546001816001161561010002031660029004801561033f5780601f106103145761010080835404028352916020019161033f565b820191906000526020600020905b81548152906001019060200180831161032257829003601f168201915b50505050508152602001600182018054600181600116156101000203166002900480601f0160208091040260200160405190810160405280929190818152602001828054600181600116156101000203166002900480156103e15780601f106103b6576101008083540402835291602001916103e1565b820191906000526020600020905b8154815290600101906020018083116103c457829003601f168201915b505050505081526020016002820160009054906101000a900460ff16600981111561040857fe5b600981111561041357fe5b815250508152602001600582016040518060a0016040529081600082018054600181600116156101000203166002900480601f0160208091040260200160405190810160405280929190818152602001828054600181600116156101000203166002900480156104c45780601f10610499576101008083540402835291602001916104c4565b820191906000526020600020905b8154815290600101906020018083116104a757829003601f168201915b50505050508152602001600182018054600181600116156101000203166002900480601f0160208091040260200160405190810160405280929190818152602001828054600181600116156101000203166002900480156105665780601f1061053b57610100808354040283529160200191610566565b820191906000526020600020905b81548152906001019060200180831161054957829003601f168201915b505050505081526020016002820160009054906101000a900460ff16151515158152602001600382015481526020016004820160009054906101000a900473ffffffffffffffffffffffffffffffffffffffff1673ffffffffffffffffffffffffffffffffffffffff1673ffffffffffffffffffffffffffffffffffffffff16815250508152505090508060200151610634576040517f08c379a000000000000000000000000000000000000000000000000000000000815260040161062b90612e85565b60405180910390fd5b600080858152602001908152602001600020604051806080016040529081600082015481526020016001820160009054906101000a900460ff1615151515815260200160028201604051806060016040529081600082018054600181600116156101000203166002900480601f01602080910402602001604051908101604052809291908181526020018280546001816001161561010002031660029004801561071f5780601f106106f45761010080835404028352916020019161071f565b820191906000526020600020905b81548152906001019060200180831161070257829003601f168201915b50505050508152602001600182018054600181600116156101000203166002900480601f0160208091040260200160405190810160405280929190818152602001828054600181600116156101000203166002900480156107c15780601f10610796576101008083540402835291602001916107c1565b820191906000526020600020905b8154815290600101906020018083116107a457829003601f168201915b505050505081526020016002820160009054906101000a900460ff1660098111156107e857fe5b60098111156107f357fe5b815250508152602001600582016040518060a0016040529081600082018054600181600116156101000203166002900480601f0160208091040260200160405190810160405280929190818152602001828054600181600116156101000203166002900480156108a45780601f10610879576101008083540402835291602001916108a4565b820191906000526020600020905b81548152906001019060200180831161088757829003601f168201915b50505050508152602001600182018054600181600116156101000203166002900480601f0160208091040260200160405190810160405280929190818152602001828054600181600116156101000203166002900480156109465780601f1061091b57610100808354040283529160200191610946565b820191906000526020600020905b81548152906001019060200180831161092957829003601f168201915b505050505081526020016002820160009054906101000a900460ff16151515158152602001600382015481526020016004820160009054906101000a900473ffffffffffffffffffffffffffffffffffffffff1673ffffffffffffffffffffffffffffffffffffffff1673ffffffffffffffffffffffffffffffffffffffff16815250508152505092505050919050565b60606001805480602002602001604051908101604052809291908181526020016000905b82821015610daa57838290600052602060002090600a0201604051806080016040529081600082015481526020016001820160009054906101000a900460ff1615151515815260200160028201604051806060016040529081600082018054600181600116156101000203166002900480601f016020809104026020016040519081016040528092919081815260200182805460018160011615610100020316600290048015610aec5780601f10610ac157610100808354040283529160200191610aec565b820191906000526020600020905b815481529060010190602001808311610acf57829003601f168201915b50505050508152602001600182018054600181600116156101000203166002900480601f016020809104026020016040519081016040528092919081815260200182805460018160011615610100020316600290048015610b8e5780601f10610b6357610100808354040283529160200191610b8e565b820191906000526020600020905b815481529060010190602001808311610b7157829003601f168201915b505050505081526020016002820160009054906101000a900460ff166009811115610bb557fe5b6009811115610bc057fe5b815250508152602001600582016040518060a0016040529081600082018054600181600116156101000203166002900480601f016020809104026020016040519081016040528092919081815260200182805460018160011615610100020316600290048015610c715780601f10610c4657610100808354040283529160200191610c71565b820191906000526020600020905b815481529060010190602001808311610c5457829003601f168201915b50505050508152602001600182018054600181600116156101000203166002900480601f016020809104026020016040519081016040528092919081815260200182805460018160011615610100020316600290048015610d135780601f10610ce857610100808354040283529160200191610d13565b820191906000526020600020905b815481529060010190602001808311610cf657829003601f168201915b505050505081526020016002820160009054906101000a900460ff16151515158152602001600382015481526020016004820160009054906101000a900473ffffffffffffffffffffffffffffffffffffffff1673ffffffffffffffffffffffffffffffffffffffff1673ffffffffffffffffffffffffffffffffffffffff168152505081525050815260200190600101906109fb565b50505050905090565b6000600260003373ffffffffffffffffffffffffffffffffffffffff1673ffffffffffffffffffffffffffffffffffffffff16815260200190815260200160002060010180549050905090565b8686868560008451905060008111610e4d576040517f08c379a0000000000000000000000000000000000000000000000000000000008152600401610e4490612ea5565b60405180910390fd5b60008451905060008111610e96576040517f08c379a0000000000000000000000000000000000000000000000000000000008152600401610e8d90612e65565b60405180910390fd5b6000841480610ea55750600184145b80610eb05750600284145b80610ebb5750600384145b80610ec65750600484145b80610ed15750600584145b80610edc5750600684145b80610ee75750600784145b80610ef25750600884145b80610efd5750600984145b610f3c576040517f08c379a0000000000000000000000000000000000000000000000000000000008152600401610f3390612ee5565b60405180910390fd5b60008351905060008111610f85576040517f08c379a0000000000000000000000000000000000000000000000000000000008152600401610f7c90612e25565b60405180910390fd5b610f8d612563565b610f988f8f8f612201565b9050610fa261258f565b610fad8c8c8c612240565b9050610fb761252d565b610fc28e8484612291565b905080600080836000015181526020019081526020016000206000820151816000015560208201518160010160006101000a81548160ff021916908315150217905550604082015181600201600082015181600001908051906020019061102a9291906125d6565b5060208201518160010190805190602001906110479291906125d6565b5060408201518160020160006101000a81548160ff0219169083600981111561106c57fe5b0217905550505060608201518160050160008201518160000190805190602001906110989291906125d6565b5060208201518160010190805190602001906110b59291906125d6565b5060408201518160020160006101000a81548160ff0219169083151502179055506060820151816003015560808201518160040160006101000a81548173ffffffffffffffffffffffffffffffffffffffff021916908373ffffffffffffffffffffffffffffffffffffffff160217905550505090505060018190806001815401808255809150506001900390600052602060002090600a02016000909190919091506000820151816000015560208201518160010160006101000a81548160ff02191690831515021790555060408201518160020160008201518160000190805190602001906111a79291906125d6565b5060208201518160010190805190602001906111c49291906125d6565b5060408201518160020160006101000a81548160ff021916908360098111156111e957fe5b0217905550505060608201518160050160008201518160000190805190602001906112159291906125d6565b5060208201518160010190805190602001906112329291906125d6565b5060408201518160020160006101000a81548160ff0219169083151502179055506060820151816003015560808201518160040160006101000a81548173ffffffffffffffffffffffffffffffffffffffff021916908373ffffffffffffffffffffffffffffffffffffffff16021790555050505050600260003373ffffffffffffffffffffffffffffffffffffffff1673ffffffffffffffffffffffffffffffffffffffff168152602001908152602001600020600201816000015190806001815401808255809150506001900390600052602060002001600090919091909150555050505050505050505050505050505050565b6000600260003373ffffffffffffffffffffffffffffffffffffffff1673ffffffffffffffffffffffffffffffffffffffff16815260200190815260200160002060020180549050905090565b6060600260003373ffffffffffffffffffffffffffffffffffffffff1673ffffffffffffffffffffffffffffffffffffffff16815260200190815260200160002060020180548060200260200160405190810160405280929190818152602001828054801561140357602002820191906000526020600020905b8154815260200190600101908083116113ef575b5050505050905090565b80611417816122c6565b15611457576040517f08c379a000000000000000000000000000000000000000000000000000000000815260040161144e90612ec5565b60405180910390fd5b6000600260003373ffffffffffffffffffffffffffffffffffffffff1673ffffffffffffffffffffffffffffffffffffffff16815260200190815260200160002060010190506114a561252d565b6114ae84610243565b90506114ca8160600151608001518260600151606001516123a8565b8184908060018154018082558091505060019003906000526020600020016000909190919091505550505050565b8061150161252d565b600080838152602001908152602001600020604051806080016040529081600082015481526020016001820160009054906101000a900460ff1615151515815260200160028201604051806060016040529081600082018054600181600116156101000203166002900480601f0160208091040260200160405190810160405280929190818152602001828054600181600116156101000203166002900480156115ec5780601f106115c1576101008083540402835291602001916115ec565b820191906000526020600020905b8154815290600101906020018083116115cf57829003601f168201915b50505050508152602001600182018054600181600116156101000203166002900480601f01602080910402602001604051908101604052809291908181526020018280546001816001161561010002031660029004801561168e5780601f106116635761010080835404028352916020019161168e565b820191906000526020600020905b81548152906001019060200180831161167157829003601f168201915b505050505081526020016002820160009054906101000a900460ff1660098111156116b557fe5b60098111156116c057fe5b815250508152602001600582016040518060a0016040529081600082018054600181600116156101000203166002900480601f0160208091040260200160405190810160405280929190818152602001828054600181600116156101000203166002900480156117715780601f1061174657610100808354040283529160200191611771565b820191906000526020600020905b81548152906001019060200180831161175457829003601f168201915b50505050508152602001600182018054600181600116156101000203166002900480601f0160208091040260200160405190810160405280929190818152602001828054600181600116156101000203166002900480156118135780601f106117e857610100808354040283529160200191611813565b820191906000526020600020905b8154815290600101906020018083116117f657829003601f168201915b505050505081526020016002820160009054906101000a900460ff16151515158152602001600382015481526020016004820160009054906101000a900473ffffffffffffffffffffffffffffffffffffffff1673ffffffffffffffffffffffffffffffffffffffff1673ffffffffffffffffffffffffffffffffffffffff168152505081525050905080602001516118e1576040517f08c379a00000000000000000000000000000000000000000000000000000000081526004016118d890612e85565b60405180910390fd5b6000808481526020019081526020016000206000808201600090556001820160006101000a81549060ff021916905560028201600080820160006119259190612656565b6001820160006119359190612656565b6002820160006101000a81549060ff0219169055505060058201600080820160006119609190612656565b6001820160006119709190612656565b6002820160006101000a81549060ff021916905560038201600090556004820160006101000a81549073ffffffffffffffffffffffffffffffffffffffff02191690555050505060005b600180549050811015612077576119cf61252d565b600182815481106119dc57fe5b90600052602060002090600a0201604051806080016040529081600082015481526020016001820160009054906101000a900460ff1615151515815260200160028201604051806060016040529081600082018054600181600116156101000203166002900480601f016020809104026020016040519081016040528092919081815260200182805460018160011615610100020316600290048015611ac35780601f10611a9857610100808354040283529160200191611ac3565b820191906000526020600020905b815481529060010190602001808311611aa657829003601f168201915b50505050508152602001600182018054600181600116156101000203166002900480601f016020809104026020016040519081016040528092919081815260200182805460018160011615610100020316600290048015611b655780601f10611b3a57610100808354040283529160200191611b65565b820191906000526020600020905b815481529060010190602001808311611b4857829003601f168201915b505050505081526020016002820160009054906101000a900460ff166009811115611b8c57fe5b6009811115611b9757fe5b815250508152602001600582016040518060a0016040529081600082018054600181600116156101000203166002900480601f016020809104026020016040519081016040528092919081815260200182805460018160011615610100020316600290048015611c485780601f10611c1d57610100808354040283529160200191611c48565b820191906000526020600020905b815481529060010190602001808311611c2b57829003601f168201915b50505050508152602001600182018054600181600116156101000203166002900480601f016020809104026020016040519081016040528092919081815260200182805460018160011615610100020316600290048015611cea5780601f10611cbf57610100808354040283529160200191611cea565b820191906000526020600020905b815481529060010190602001808311611ccd57829003601f168201915b505050505081526020016002820160009054906101000a900460ff16151515158152602001600382015481526020016004820160009054906101000a900473ffffffffffffffffffffffffffffffffffffffff1673ffffffffffffffffffffffffffffffffffffffff1673ffffffffffffffffffffffffffffffffffffffff168152505081525050905084816000015114156120695760018080805490500381548110611d9357fe5b90600052602060002090600a020160018381548110611dae57fe5b90600052602060002090600a0201600082015481600001556001820160009054906101000a900460ff168160010160006101000a81548160ff021916908315150217905550600282018160020160008201816000019080546001816001161561010002031660029004611e2292919061269e565b5060018201816001019080546001816001161561010002031660029004611e4a92919061269e565b506002820160009054906101000a900460ff168160020160006101000a81548160ff02191690836009811115611e7c57fe5b02179055505050600582018160050160008201816000019080546001816001161561010002031660029004611eb292919061269e565b5060018201816001019080546001816001161561010002031660029004611eda92919061269e565b506002820160009054906101000a900460ff168160020160006101000a81548160ff021916908315150217905550600382015481600301556004820160009054906101000a900473ffffffffffffffffffffffffffffffffffffffff168160040160006101000a81548173ffffffffffffffffffffffffffffffffffffffff021916908373ffffffffffffffffffffffffffffffffffffffff16021790555050509050506001805480611f8957fe5b60019003818190600052602060002090600a02016000808201600090556001820160006101000a81549060ff02191690556002820160008082016000611fcf9190612656565b600182016000611fdf9190612656565b6002820160006101000a81549060ff02191690555050600582016000808201600061200a9190612656565b60018201600061201a9190612656565b6002820160006101000a81549060ff021916905560038201600090556004820160006101000a81549073ffffffffffffffffffffffffffffffffffffffff021916905550505050905550612077565b5080806001019150506119ba565b506000600260003373ffffffffffffffffffffffffffffffffffffffff1673ffffffffffffffffffffffffffffffffffffffff168152602001908152602001600020600201905060005b818054905081101561215557848282815481106120da57fe5b9060005260206000200154141561214857816001838054905003815481106120fe57fe5b906000526020600020015482828154811061211557fe5b90600052602060002001819055508180548061212d57fe5b60019003818190600052602060002001600090559055612155565b80806001019150506120c1565b5050505050565b6060600260003373ffffffffffffffffffffffffffffffffffffffff1673ffffffffffffffffffffffffffffffffffffffff1681526020019081526020016000206001018054806020026020016040519081016040528092919081815260200182805480156121ea57602002820191906000526020600020905b8154815260200190600101908083116121d6575b5050505050905090565b6000600180549050905090565b612209612563565b604051806060016040528085815260200184815260200161222984612438565b600981111561223457fe5b81525090509392505050565b61224861258f565b6040518060a001604052808581526020018481526020016001151581526020018381526020013373ffffffffffffffffffffffffffffffffffffffff1681525090509392505050565b61229961252d565b60405180608001604052808581526020016001151581526020018481526020018381525090509392505050565b60006060600260003373ffffffffffffffffffffffffffffffffffffffff1673ffffffffffffffffffffffffffffffffffffffff16815260200190815260200160002060010180548060200260200160405190810160405280929190818152602001828054801561235657602002820191906000526020600020905b815481526020019060010190808311612342575b5050505050905060005b815181101561239c578382828151811061237657fe5b6020026020010151141561238f576001925050506123a3565b8080600101915050612360565b5060009150505b919050565b80803410156123ec576040517f08c379a00000000000000000000000000000000000000000000000000000000081526004016123e390612e45565b60405180910390fd5b8273ffffffffffffffffffffffffffffffffffffffff166108fc839081150290604051600060405180830381858888f19350505050158015612432573d6000803e3d6000fd5b50505050565b60008082141561244b5760009050612528565b600182141561245d5760019050612528565b600282141561246f5760029050612528565b60038214156124815760039050612528565b60048214156124935760049050612528565b60058214156124a55760059050612528565b60068214156124b75760069050612528565b60078214156124c95760079050612528565b60088214156124db5760089050612528565b60098214156124ed5760099050612528565b6040517f08c379a000000000000000000000000000000000000000000000000000000000815260040161251f90612ee5565b60405180910390fd5b919050565b604051806080016040528060008152602001600015158152602001612550612563565b815260200161255d61258f565b81525090565b604051806060016040528060608152602001606081526020016000600981111561258957fe5b81525090565b6040518060a00160405280606081526020016060815260200160001515815260200160008152602001600073ffffffffffffffffffffffffffffffffffffffff1681525090565b828054600181600116156101000203166002900490600052602060002090601f016020900481019282601f1061261757805160ff1916838001178555612645565b82800160010185558215612645579182015b82811115612644578251825591602001919060010190612629565b5b5090506126529190612725565b5090565b50805460018160011615610100020316600290046000825580601f1061267c575061269b565b601f01602090049060005260206000209081019061269a9190612725565b5b50565b828054600181600116156101000203166002900490600052602060002090601f016020900481019282601f106126d75780548555612714565b8280016001018555821561271457600052602060002091601f016020900482015b828111156127135782548255916001019190600101906126f8565b5b5090506127219190612725565b5090565b5b8082111561273e576000816000905550600101612726565b5090565b60008135905061275181613111565b92915050565b600082601f83011261276857600080fd5b813561277b61277682612f6f565b612f42565b9150808252602083016020830185838301111561279757600080fd5b6127a28382846130b1565b50505092915050565b6000813590506127ba81613128565b92915050565b6000602082840312156127d257600080fd5b60006127e084828501612742565b91505092915050565b600080600080600080600060e0888a03121561280457600080fd5b600088013567ffffffffffffffff81111561281e57600080fd5b61282a8a828b01612757565b975050602088013567ffffffffffffffff81111561284757600080fd5b6128538a828b01612757565b96505060406128648a828b01612742565b95505060606128758a828b01612742565b945050608088013567ffffffffffffffff81111561289257600080fd5b61289e8a828b01612757565b93505060a088013567ffffffffffffffff8111156128bb57600080fd5b6128c78a828b01612757565b92505060c06128d88a828b016127ab565b91505092959891949750929550565b60006128f38383612a13565b60208301905092915050565b600061290b8383612cef565b905092915050565b61291c8161303a565b82525050565b600061292d82612fbb565b6129378185612ff6565b935061294283612f9b565b8060005b8381101561297357815161295a88826128e7565b975061296583612fdc565b925050600181019050612946565b5085935050505092915050565b600061298b82612fc6565b6129958185613007565b9350836020820285016129a785612fab565b8060005b858110156129e357848403895281516129c485826128ff565b94506129cf83612fe9565b925060208a019950506001810190506129ab565b50829750879550505050505092915050565b6129fe8161304c565b82525050565b612a0d8161309f565b82525050565b612a1c8161306b565b82525050565b6000612a2d82612fd1565b612a378185613018565b9350612a478185602086016130c0565b612a50816130f3565b840191505092915050565b6000612a68601483613029565b91507f4c696e6b2063616e6e6f7420626520656d7074790000000000000000000000006000830152602082019050919050565b6000612aa8601883613029565b91507f5061796d656e7420697320696e73756666696369656e742100000000000000006000830152602082019050919050565b6000612ae8601683613029565b91507f417574686f722063616e6e6f7420626520656d707479000000000000000000006000830152602082019050919050565b6000612b28600983613029565b91507f4e6f7420666f756e6400000000000000000000000000000000000000000000006000830152602082019050919050565b6000612b68601583613029565b91507f5469746c652063616e6e6f7420626520656d70747900000000000000000000006000830152602082019050919050565b6000612ba8601783613029565b91507f536f6e6720616c726561647920707572636861736564210000000000000000006000830152602082019050919050565b6000612be8601583613029565b91507f496e76616c69642063617465676f7279207479706500000000000000000000006000830152602082019050919050565b60006060830160008301518482036000860152612c388282612a22565b91505060208301518482036020860152612c528282612a22565b9150506040830151612c676040860182612a04565b508091505092915050565b600060a0830160008301518482036000860152612c8f8282612a22565b91505060208301518482036020860152612ca98282612a22565b9150506040830151612cbe60408601826129f5565b506060830151612cd16060860182612dc3565b506080830151612ce46080860182612913565b508091505092915050565b6000608083016000830151612d076000860182612a13565b506020830151612d1a60208601826129f5565b5060408301518482036040860152612d328282612c1b565b91505060608301518482036060860152612d4c8282612c72565b9150508091505092915050565b6000608083016000830151612d716000860182612a13565b506020830151612d8460208601826129f5565b5060408301518482036040860152612d9c8282612c1b565b91505060608301518482036060860152612db68282612c72565b9150508091505092915050565b612dcc81613095565b82525050565b612ddb81613095565b82525050565b60006020820190508181036000830152612dfb8184612922565b905092915050565b60006020820190508181036000830152612e1d8184612980565b905092915050565b60006020820190508181036000830152612e3e81612a5b565b9050919050565b60006020820190508181036000830152612e5e81612a9b565b9050919050565b60006020820190508181036000830152612e7e81612adb565b9050919050565b60006020820190508181036000830152612e9e81612b1b565b9050919050565b60006020820190508181036000830152612ebe81612b5b565b9050919050565b60006020820190508181036000830152612ede81612b9b565b9050919050565b60006020820190508181036000830152612efe81612bdb565b9050919050565b60006020820190508181036000830152612f1f8184612d59565b905092915050565b6000602082019050612f3c6000830184612dd2565b92915050565b6000604051905081810181811067ffffffffffffffff82111715612f6557600080fd5b8060405250919050565b600067ffffffffffffffff821115612f8657600080fd5b601f19601f8301169050602081019050919050565b6000819050602082019050919050565b6000819050602082019050919050565b600081519050919050565b600081519050919050565b600081519050919050565b6000602082019050919050565b6000602082019050919050565b600082825260208201905092915050565b600082825260208201905092915050565b600082825260208201905092915050565b600082825260208201905092915050565b600061304582613075565b9050919050565b60008115159050919050565b600081905061306682613104565b919050565b6000819050919050565b600073ffffffffffffffffffffffffffffffffffffffff82169050919050565b6000819050919050565b60006130aa82613058565b9050919050565b82818337600083830152505050565b60005b838110156130de5780820151818401526020810190506130c3565b838111156130ed576000848401525b50505050565b6000601f19601f8301169050919050565b600a811061310e57fe5b50565b61311a8161306b565b811461312557600080fd5b50565b61313181613095565b811461313c57600080fd5b5056fea2646970667358221220b3454af4a8183a47b1f38d43af924066ecced8cb68beb22de51cc039e50f07e864736f6c63430007000033",
  "immutableReferences": {},
  "source": "// SPDX-License-Identifier: MIT\r\npragma solidity ^0.7.0;\r\npragma experimental ABIEncoderV2;\r\n\r\ncontract Muse {\r\n    \r\n    // ISMN begins from 1000000000000\r\n    // 1 Ether = 1000000000000000000 Wei\r\n    \r\n    enum Category {\r\n        Pop,\r\n        Indie,\r\n        Rock,\r\n        HipHop,\r\n        Mood,\r\n        Chill,\r\n        RnB,\r\n        Romance,\r\n        Jazz,\r\n        Anime\r\n    }\r\n\r\n    /**The link is link for the song, \r\n    after user purchase only will show the passcode (havent do yet for customer logic) */\r\n    struct Song {\r\n        int256 ismn;\r\n        bool exists;\r\n        Description description;\r\n        Details details;\r\n    }\r\n\r\n    struct Description {\r\n        string title;\r\n        string author;\r\n        Category category;\r\n    }\r\n    \r\n    struct Details {\r\n        string link;\r\n        string passcode;\r\n        bool available;\r\n        uint price;\r\n        address payable owner;\r\n    }\r\n\r\n    struct Users {\r\n        string userName;\r\n        int256[] purchases;\r\n        int256[] creations;\r\n    }\r\n\r\n    mapping(int256 => Song) private songs;\r\n    Song[] private songList;\r\n\r\n    mapping(address => Users) private users;\r\n\r\n    /**Removed the ismn validation because it is auto generated,\r\n    so no use for validate it, one error here is i cannot add validation le,\r\n    else you will get \"stack too deep\" error, havent research on the solution */\r\n    modifier validateAddSong(\r\n        string memory title,\r\n        string memory author,\r\n        int256 category,\r\n        string memory link\r\n    ) {\r\n        uint256 titleLength = bytes(title).length;\r\n        require(titleLength > 0, \"Title cannot be empty\");\r\n\r\n        uint256 authorLength = bytes(author).length;\r\n        require(authorLength > 0, \"Author cannot be empty\");\r\n\r\n        require(\r\n            category == 0 ||\r\n                category == 1 ||\r\n                category == 2 ||\r\n                category == 3 ||\r\n                category == 4 ||\r\n                category == 5 ||\r\n                category == 6 ||\r\n                category == 7 ||\r\n                category == 8 ||\r\n                category == 9,\r\n            \"Invalid category type\"\r\n        );\r\n\r\n        uint256 linkLength = bytes(link).length;\r\n        require(linkLength > 0, \"Link cannot be empty\");\r\n\r\n        _;\r\n    }\r\n\r\n    modifier songExist(int256 ismn) {\r\n        Song memory song = songs[ismn];\r\n        require(song.exists, \"Not found\");\r\n\r\n        _;\r\n    }\r\n\r\n    function addSong(\r\n        string memory title,\r\n        string memory author,\r\n        int256 category,\r\n        int256 ismn,\r\n        string memory link,\r\n        string memory passcode,\r\n        uint price\r\n    ) external validateAddSong(title, author, category, link) {\r\n        \r\n        Description memory description = toDescription(\r\n            title,\r\n            author,\r\n            category\r\n        );\r\n        \r\n        Details memory details = toDetails(\r\n            link,\r\n            passcode,\r\n            price\r\n        );\r\n        \r\n        Song memory newSong = toSong(\r\n            ismn,\r\n            description,\r\n            details\r\n        );\r\n\r\n        songs[newSong.ismn] = newSong;\r\n        songList.push(newSong);\r\n\r\n        users[msg.sender].creations.push(newSong.ismn);\r\n    }\r\n\r\n    function toSong(int256 ismn, Description memory description, Details memory details) private pure returns (Song memory){\r\n        return Song(\r\n            ismn,\r\n            true,\r\n            description,  \r\n            details  \r\n        );\r\n    }\r\n\r\n    function toDescription(string memory title, string memory author, int256 category) private pure returns (Description memory){\r\n        return Description(\r\n            title,\r\n            author,\r\n            mapCategoryType(category)\r\n        );\r\n    }\r\n    \r\n    function toDetails(string memory link, string memory passcode, uint price) private view returns (Details memory){\r\n        return Details(\r\n            link,\r\n            passcode,\r\n            true,\r\n            price,\r\n            msg.sender\r\n        );\r\n    }\r\n\r\n    function getSong(int256 ismn) public view songExist(ismn) returns (Song memory){\r\n        return songs[ismn];\r\n    }\r\n\r\n    function deleteSong(int256 ismn) external songExist(ismn) {\r\n        delete songs[ismn];\r\n\r\n        for (uint256 i = 0; i < songList.length; i++) {\r\n            Song memory song = songList[i];\r\n\r\n            if (song.ismn == ismn) {\r\n                songList[i] = songList[songList.length - 1];\r\n                songList.pop();\r\n                break;\r\n            }\r\n        }\r\n\r\n        int256[] storage userCreations = users[msg.sender].creations;\r\n\r\n        for (uint256 i = 0; i < userCreations.length; i++) {\r\n            if (userCreations[i] == ismn) {\r\n                userCreations[i] = userCreations[userCreations.length - 1];\r\n                userCreations.pop();\r\n                break;\r\n            }\r\n        }\r\n    }\r\n\r\n    // // *Purchase Song*\r\n    // function issueSong(int256 ismn) external songExist(ismn) {\r\n    //     songs[ismn].available = false;\r\n    //     setListedSongAvailability(ismn, false);\r\n    //     user[msg.sender].songPurchased.push(songs[ismn]);\r\n    // }\r\n\r\n    // // *Return Song*\r\n    // function returnSong(int256 ismn) external songExist(ismn) {\r\n    //     songs[ismn].available = true;\r\n    //     setListedSongAvailability(ismn, true);\r\n    // }\r\n\r\n    function getSongCount() external view returns (uint256) {\r\n        return songList.length;\r\n    }\r\n\r\n    function getAllSongs() external view returns (Song[] memory) {\r\n        return songList;\r\n    }\r\n\r\n    /**Display the purchased song for this user */\r\n    function getPurchasedSongs() external view returns (int256[] memory) {\r\n        return users[msg.sender].purchases;\r\n    }\r\n\r\n    function getPurchasedSongCount() external view returns (uint256) {\r\n        return users[msg.sender].purchases.length;\r\n    }\r\n\r\n    /**Display the created song for this user */\r\n    function getCreatedSongs() external view returns (int256[] memory) {\r\n        return users[msg.sender].creations;\r\n    }\r\n\r\n    function getCreatedSongCount() external view returns (uint256) {\r\n        return users[msg.sender].creations.length;\r\n    }\r\n\r\n    function mapCategoryType(int256 category) private pure returns (Category) {\r\n        if (category == 0) {\r\n            return Category.Pop;\r\n        }\r\n\r\n        if (category == 1) {\r\n            return Category.Indie;\r\n        }\r\n\r\n        if (category == 2) {\r\n            return Category.Rock;\r\n        }\r\n\r\n        if (category == 3) {\r\n            return Category.HipHop;\r\n        }\r\n\r\n        if (category == 4) {\r\n            return Category.Mood;\r\n        }\r\n\r\n        if (category == 5) {\r\n            return Category.Chill;\r\n        }\r\n\r\n        if (category == 6) {\r\n            return Category.RnB;\r\n        }\r\n\r\n        if (category == 7) {\r\n            return Category.Romance;\r\n        }\r\n\r\n        if (category == 8) {\r\n            return Category.Jazz;\r\n        }\r\n\r\n        if (category == 9) {\r\n            return Category.Anime;\r\n        }\r\n\r\n        revert(\"Invalid category type\");\r\n    }\r\n\r\n    function setListedSongAvailability(int256 ismn, bool available) private {\r\n        for (uint256 i = 0; i < songList.length; i++) {\r\n            if (songList[i].ismn == ismn) {\r\n                songList[i].details.available = available;\r\n                break;\r\n            }\r\n        }\r\n    }\r\n    \r\n    // Muse customer\r\n    \r\n    function addPurchase(int256 ismn) payable public validatePurchase(ismn) {\r\n        int256[] storage purchaseList = users[msg.sender].purchases;\r\n        \r\n        Song memory song = getSong(ismn);\r\n        \r\n        makePayment(song.details.owner, song.details.price);\r\n        \r\n        purchaseList.push(ismn);\r\n    }\r\n    \r\n    function makePayment(address payable artistAddress, uint price) private validatePayment(price) {\r\n        artistAddress.transfer(price);\r\n    }\r\n    \r\n    // Check if message.value is more than price.\r\n    modifier validatePayment(uint price) {\r\n        require(msg.value >= price, \"Payment is insufficient!\");\r\n        _;\r\n    }\r\n    \r\n    // Check if buyer is eligible for purchase.\r\n    modifier validatePurchase(int256 ismn) {\r\n        require(!isPurchased(ismn), \"Song already purchased!\");\r\n        _;\r\n    }\r\n    \r\n    function isPurchased(int256 ismn) private view returns(bool){\r\n        int256[] memory purchaseList = users[msg.sender].purchases;\r\n        \r\n        for(uint256 i = 0; i < purchaseList.length; i++) {\r\n            if (purchaseList[i] == ismn) {\r\n                return true;\r\n            }\r\n        }\r\n        return false;\r\n    }\r\n}\r\n",
  "sourcePath": "C:/Users/kensh/Documents/GitHub/Blockchain-Muse/contracts/Muse.sol",
  "compiler": {
    "name": "solc",
    "version": "0.7.0+commit.9e61f92b.Emscripten.clang"
  },
  "schemaVersion": "3.3.1",
  "updatedAt": "2020-12-06T05:51:35.464Z",
  "networkType": "ethereum",
  "devdoc": {
    "kind": "dev",
    "methods": {},
    "version": 1
  },
  "userdoc": {
    "kind": "user",
    "methods": {
      "getCreatedSongs()": {
        "notice": "Display the created song for this user "
      },
      "getPurchasedSongs()": {
        "notice": "Display the purchased song for this user "
      }
    },
    "version": 1
  }
}