{
  "contractName": "MyGallery",
  "abi": [
    {
      "inputs": [
        {
          "internalType": "string",
          "name": "title",
          "type": "string"
        },
        {
          "internalType": "string",
          "name": "author",
          "type": "string"
        },
        {
          "internalType": "int256",
          "name": "category",
          "type": "int256"
        },
        {
          "internalType": "int256",
          "name": "ismn",
          "type": "int256"
        }
      ],
      "name": "addSong",
      "outputs": [],
      "stateMutability": "nonpayable",
      "type": "function"
    },
    {
      "inputs": [
        {
          "internalType": "int256",
          "name": "ismn",
          "type": "int256"
        }
      ],
      "name": "getSong",
      "outputs": [
        {
          "components": [
            {
              "internalType": "string",
              "name": "title",
              "type": "string"
            },
            {
              "internalType": "string",
              "name": "author",
              "type": "string"
            },
            {
              "internalType": "enum MyGallery.Category",
              "name": "category",
              "type": "uint8"
            },
            {
              "internalType": "int256",
              "name": "ismn",
              "type": "int256"
            },
            {
              "internalType": "bool",
              "name": "available",
              "type": "bool"
            },
            {
              "internalType": "bool",
              "name": "exists",
              "type": "bool"
            }
          ],
          "internalType": "struct MyGallery.Song",
          "name": "",
          "type": "tuple"
        }
      ],
      "stateMutability": "view",
      "type": "function",
      "constant": true
    }
  ],
  "bytecode": "0x608060405234801561001057600080fd5b50610bdf806100206000396000f3fe608060405234801561001057600080fd5b50600436106100365760003560e01c80630be227921461003b578063f956533a1461006b575b600080fd5b610055600480360381019061005091906107dd565b610087565b6040516100629190610a4f565b60405180910390f35b61008560048036038101906100809190610806565b610483565b005b61008f610692565b81610098610692565b6000808381526020019081526020016000206040518060c0016040529081600082018054600181600116156101000203166002900480601f01602080910402602001604051908101604052809291908181526020018280546001816001161561010002031660029004801561014e5780601f106101235761010080835404028352916020019161014e565b820191906000526020600020905b81548152906001019060200180831161013157829003601f168201915b50505050508152602001600182018054600181600116156101000203166002900480601f0160208091040260200160405190810160405280929190818152602001828054600181600116156101000203166002900480156101f05780601f106101c5576101008083540402835291602001916101f0565b820191906000526020600020905b8154815290600101906020018083116101d357829003601f168201915b505050505081526020016002820160009054906101000a900460ff16600981111561021757fe5b600981111561022257fe5b8152602001600382015481526020016004820160009054906101000a900460ff161515151581526020016004820160019054906101000a900460ff16151515158152505090508060a001516102ac576040517f08c379a00000000000000000000000000000000000000000000000000000000081526004016102a390610a0f565b60405180910390fd5b6000808581526020019081526020016000206040518060c0016040529081600082018054600181600116156101000203166002900480601f0160208091040260200160405190810160405280929190818152602001828054600181600116156101000203166002900480156103625780601f1061033757610100808354040283529160200191610362565b820191906000526020600020905b81548152906001019060200180831161034557829003601f168201915b50505050508152602001600182018054600181600116156101000203166002900480601f0160208091040260200160405190810160405280929190818152602001828054600181600116156101000203166002900480156104045780601f106103d957610100808354040283529160200191610404565b820191906000526020600020905b8154815290600101906020018083116103e757829003601f168201915b505050505081526020016002820160009054906101000a900460ff16600981111561042b57fe5b600981111561043657fe5b8152602001600382015481526020016004820160009054906101000a900460ff161515151581526020016004820160019054906101000a900460ff16151515158152505092505050919050565b61048b610692565b6040518060c001604052808681526020018581526020016104ab8561059d565b60098111156104b657fe5b81526020018381526020016001151581526020016001151581525090508060008084815260200190815260200160002060008201518160000190805190602001906105029291906106d7565b50602082015181600101908051906020019061051f9291906106d7565b5060408201518160020160006101000a81548160ff0219169083600981111561054457fe5b02179055506060820151816003015560808201518160040160006101000a81548160ff02191690831515021790555060a08201518160040160016101000a81548160ff0219169083151502179055509050505050505050565b6000808214156105b0576000905061068d565b60018214156105c2576001905061068d565b60028214156105d4576002905061068d565b60038214156105e6576003905061068d565b60048214156105f8576004905061068d565b600582141561060a576005905061068d565b600682141561061c576006905061068d565b600782141561062e576007905061068d565b6008821415610640576008905061068d565b6009821415610652576009905061068d565b6040517f08c379a000000000000000000000000000000000000000000000000000000000815260040161068490610a2f565b60405180910390fd5b919050565b6040518060c001604052806060815260200160608152602001600060098111156106b857fe5b8152602001600081526020016000151581526020016000151581525090565b828054600181600116156101000203166002900490600052602060002090601f016020900481019282601f1061071857805160ff1916838001178555610746565b82800160010185558215610746579182015b8281111561074557825182559160200191906001019061072a565b5b5090506107539190610757565b5090565b5b80821115610770576000816000905550600101610758565b5090565b60008135905061078381610b92565b92915050565b600082601f83011261079a57600080fd5b81356107ad6107a882610a9e565b610a71565b915080825260208301602083018583830111156107c957600080fd5b6107d4838284610b32565b50505092915050565b6000602082840312156107ef57600080fd5b60006107fd84828501610774565b91505092915050565b6000806000806080858703121561081c57600080fd5b600085013567ffffffffffffffff81111561083657600080fd5b61084287828801610789565b945050602085013567ffffffffffffffff81111561085f57600080fd5b61086b87828801610789565b935050604061087c87828801610774565b925050606061088d87828801610774565b91505092959194509250565b6108a281610af7565b82525050565b6108b181610b20565b82525050565b6108c081610b16565b82525050565b60006108d182610aca565b6108db8185610ad5565b93506108eb818560208601610b41565b6108f481610b74565b840191505092915050565b600061090c600983610ae6565b91507f4e6f7420666f756e6400000000000000000000000000000000000000000000006000830152602082019050919050565b600061094c601583610ae6565b91507f496e76616c69642063617465676f7279207479706500000000000000000000006000830152602082019050919050565b600060c083016000830151848203600086015261099c82826108c6565b915050602083015184820360208601526109b682826108c6565b91505060408301516109cb60408601826108a8565b5060608301516109de60608601826108b7565b5060808301516109f16080860182610899565b5060a0830151610a0460a0860182610899565b508091505092915050565b60006020820190508181036000830152610a28816108ff565b9050919050565b60006020820190508181036000830152610a488161093f565b9050919050565b60006020820190508181036000830152610a69818461097f565b905092915050565b6000604051905081810181811067ffffffffffffffff82111715610a9457600080fd5b8060405250919050565b600067ffffffffffffffff821115610ab557600080fd5b601f19601f8301169050602081019050919050565b600081519050919050565b600082825260208201905092915050565b600082825260208201905092915050565b60008115159050919050565b6000819050610b1182610b85565b919050565b6000819050919050565b6000610b2b82610b03565b9050919050565b82818337600083830152505050565b60005b83811015610b5f578082015181840152602081019050610b44565b83811115610b6e576000848401525b50505050565b6000601f19601f8301169050919050565b600a8110610b8f57fe5b50565b610b9b81610b16565b8114610ba657600080fd5b5056fea2646970667358221220e800d32a6467169ae99c4ce529e8d6625bcfac426a6bc0c21d4b06fe2a396f7564736f6c63430007000033",
  "immutableReferences": {},
  "source": "// SPDX-License-Identifier: MIT\r\npragma solidity ^0.7.0;\r\npragma experimental ABIEncoderV2;\r\n\r\ncontract MyGallery {\r\n    enum Category {Pop, Indie, Rock, HipHop, Mood, Chill, RnB, Romance, Jazz, Anime}\r\n\r\n    struct Song {\r\n        string title;\r\n        string author;\r\n        Category category;\r\n        int256 ismn;\r\n        bool available;\r\n        bool exists;\r\n    }\r\n\r\n    mapping(int256 => Song) private songs;\r\n\r\n    modifier songExist(int256 ismn) {\r\n        Song memory song = songs[ismn];\r\n        require(song.exists, \"Not found\");\r\n\r\n        _;\r\n    }\r\n\r\n    function addSong(\r\n        string memory title,\r\n        string memory author,\r\n        int256 category,\r\n        int256 ismn\r\n    ) external {\r\n        Song memory newSong = Song(\r\n            title,\r\n            author,\r\n            mapCategoryType(category),\r\n            ismn,\r\n            true,\r\n            true\r\n        );\r\n\r\n        songs[ismn] = newSong;\r\n    }\r\n\r\n    function getSong(int256 ismn) external view songExist(ismn) returns (Song memory){\r\n        return songs[ismn];\r\n    }\r\n\r\n    function mapCategoryType(int256 category) private pure returns (Category){\r\n        if(category == 0){\r\n            return Category.Pop;\r\n        }\r\n\r\n        if(category == 1){\r\n            return Category.Indie;\r\n        }\r\n\r\n        if(category == 2){\r\n            return Category.Rock;\r\n        }\r\n\r\n        if(category == 3){\r\n            return Category.HipHop;\r\n        }\r\n\r\n        if(category == 4){\r\n            return Category.Mood;\r\n        }\r\n\r\n        if(category == 5){\r\n            return Category.Chill;\r\n        }\r\n\r\n        if(category == 6){\r\n            return Category.RnB;\r\n        }\r\n\r\n        if(category == 7){\r\n            return Category.Romance;\r\n        }\r\n\r\n        if(category == 8){\r\n            return Category.Jazz;\r\n        }\r\n\r\n        if(category == 9){\r\n            return Category.Anime;\r\n        }\r\n\r\n        revert(\"Invalid category type\");\r\n    }\r\n}",
  "sourcePath": "C:/Users/kensh/Documents/GitHub/muse-dapp/contracts/MyGallery.sol",
  "compiler": {
    "name": "solc",
    "version": "0.7.0+commit.9e61f92b.Emscripten.clang"
  },
  "schemaVersion": "3.3.1",
  "updatedAt": "2020-12-01T08:14:45.919Z",
  "networkType": "ethereum",
  "devdoc": {
    "kind": "dev",
    "methods": {},
    "version": 1
  },
  "userdoc": {
    "kind": "user",
    "methods": {},
    "version": 1
  }
}