{
  "contractName": "MyGallery",
  "abi": [
    {
      "inputs": [
        {
          "internalType": "string",
          "name": "title",
          "type": "string"
        },
        {
          "internalType": "string",
          "name": "author",
          "type": "string"
        },
        {
          "internalType": "int256",
          "name": "category",
          "type": "int256"
        },
        {
          "internalType": "int256",
          "name": "ismn",
          "type": "int256"
        }
      ],
      "name": "addSong",
      "outputs": [],
      "stateMutability": "nonpayable",
      "type": "function"
    },
    {
      "inputs": [
        {
          "internalType": "int256",
          "name": "ismn",
          "type": "int256"
        }
      ],
      "name": "getSong",
      "outputs": [
        {
          "components": [
            {
              "internalType": "string",
              "name": "title",
              "type": "string"
            },
            {
              "internalType": "string",
              "name": "author",
              "type": "string"
            },
            {
              "internalType": "enum MyGallery.Category",
              "name": "category",
              "type": "uint8"
            },
            {
              "internalType": "int256",
              "name": "ismn",
              "type": "int256"
            },
            {
              "internalType": "bool",
              "name": "available",
              "type": "bool"
            },
            {
              "internalType": "bool",
              "name": "exists",
              "type": "bool"
            }
          ],
          "internalType": "struct MyGallery.Song",
          "name": "",
          "type": "tuple"
        }
      ],
      "stateMutability": "view",
      "type": "function",
      "constant": true
    },
    {
      "inputs": [
        {
          "internalType": "int256",
          "name": "ismn",
          "type": "int256"
        }
      ],
      "name": "deleteSong",
      "outputs": [],
      "stateMutability": "nonpayable",
      "type": "function"
    },
    {
      "inputs": [
        {
          "internalType": "int256",
          "name": "ismn",
          "type": "int256"
        }
      ],
      "name": "issueSong",
      "outputs": [],
      "stateMutability": "nonpayable",
      "type": "function"
    },
    {
      "inputs": [
        {
          "internalType": "int256",
          "name": "ismn",
          "type": "int256"
        }
      ],
      "name": "returnSong",
      "outputs": [],
      "stateMutability": "nonpayable",
      "type": "function"
    },
    {
      "inputs": [],
      "name": "getSongCount",
      "outputs": [
        {
          "internalType": "uint256",
          "name": "",
          "type": "uint256"
        }
      ],
      "stateMutability": "view",
      "type": "function",
      "constant": true
    },
    {
      "inputs": [],
      "name": "getAllSongs",
      "outputs": [
        {
          "components": [
            {
              "internalType": "string",
              "name": "title",
              "type": "string"
            },
            {
              "internalType": "string",
              "name": "author",
              "type": "string"
            },
            {
              "internalType": "enum MyGallery.Category",
              "name": "category",
              "type": "uint8"
            },
            {
              "internalType": "int256",
              "name": "ismn",
              "type": "int256"
            },
            {
              "internalType": "bool",
              "name": "available",
              "type": "bool"
            },
            {
              "internalType": "bool",
              "name": "exists",
              "type": "bool"
            }
          ],
          "internalType": "struct MyGallery.Song[]",
          "name": "",
          "type": "tuple[]"
        }
      ],
      "stateMutability": "view",
      "type": "function",
      "constant": true
    }
  ],
  "bytecode": "0x608060405234801561001057600080fd5b50612076806100206000396000f3fe608060405234801561001057600080fd5b506004361061007d5760003560e01c8063af97c5c01161005b578063af97c5c0146100ec578063ba1fb43f14610108578063ca487ad914610124578063f956533a146101425761007d565b80630be227921461008257806329ef6862146100b2578063819325f5146100d0575b600080fd5b61009c600480360381019061009791906119ac565b61015e565b6040516100a99190611e88565b60405180910390f35b6100ba61055a565b6040516100c79190611dc6565b60405180910390f35b6100ea60048036038101906100e591906119ac565b61076a565b005b610106600480360381019061010191906119ac565b610dc8565b005b610122600480360381019061011d91906119ac565b611023565b005b61012c61127e565b6040516101399190611eaa565b60405180910390f35b61015c600480360381019061015791906119d5565b61128b565b005b610166611792565b8161016f611792565b6000808381526020019081526020016000206040518060c0016040529081600082018054600181600116156101000203166002900480601f0160208091040260200160405190810160405280929190818152602001828054600181600116156101000203166002900480156102255780601f106101fa57610100808354040283529160200191610225565b820191906000526020600020905b81548152906001019060200180831161020857829003601f168201915b50505050508152602001600182018054600181600116156101000203166002900480601f0160208091040260200160405190810160405280929190818152602001828054600181600116156101000203166002900480156102c75780601f1061029c576101008083540402835291602001916102c7565b820191906000526020600020905b8154815290600101906020018083116102aa57829003601f168201915b505050505081526020016002820160009054906101000a900460ff1660098111156102ee57fe5b60098111156102f957fe5b8152602001600382015481526020016004820160009054906101000a900460ff161515151581526020016004820160019054906101000a900460ff16151515158152505090508060a00151610383576040517f08c379a000000000000000000000000000000000000000000000000000000000815260040161037a90611e08565b60405180910390fd5b6000808581526020019081526020016000206040518060c0016040529081600082018054600181600116156101000203166002900480601f0160208091040260200160405190810160405280929190818152602001828054600181600116156101000203166002900480156104395780601f1061040e57610100808354040283529160200191610439565b820191906000526020600020905b81548152906001019060200180831161041c57829003601f168201915b50505050508152602001600182018054600181600116156101000203166002900480601f0160208091040260200160405190810160405280929190818152602001828054600181600116156101000203166002900480156104db5780601f106104b0576101008083540402835291602001916104db565b820191906000526020600020905b8154815290600101906020018083116104be57829003601f168201915b505050505081526020016002820160009054906101000a900460ff16600981111561050257fe5b600981111561050d57fe5b8152602001600382015481526020016004820160009054906101000a900460ff161515151581526020016004820160019054906101000a900460ff16151515158152505092505050919050565b60606001805480602002602001604051908101604052809291908181526020016000905b8282101561076157838290600052602060002090600502016040518060c0016040529081600082018054600181600116156101000203166002900480601f01602080910402602001604051908101604052809291908181526020018280546001816001161561010002031660029004801561063a5780601f1061060f5761010080835404028352916020019161063a565b820191906000526020600020905b81548152906001019060200180831161061d57829003601f168201915b50505050508152602001600182018054600181600116156101000203166002900480601f0160208091040260200160405190810160405280929190818152602001828054600181600116156101000203166002900480156106dc5780601f106106b1576101008083540402835291602001916106dc565b820191906000526020600020905b8154815290600101906020018083116106bf57829003601f168201915b505050505081526020016002820160009054906101000a900460ff16600981111561070357fe5b600981111561070e57fe5b8152602001600382015481526020016004820160009054906101000a900460ff161515151581526020016004820160019054906101000a900460ff1615151515815250508152602001906001019061057e565b50505050905090565b80610773611792565b6000808381526020019081526020016000206040518060c0016040529081600082018054600181600116156101000203166002900480601f0160208091040260200160405190810160405280929190818152602001828054600181600116156101000203166002900480156108295780601f106107fe57610100808354040283529160200191610829565b820191906000526020600020905b81548152906001019060200180831161080c57829003601f168201915b50505050508152602001600182018054600181600116156101000203166002900480601f0160208091040260200160405190810160405280929190818152602001828054600181600116156101000203166002900480156108cb5780601f106108a0576101008083540402835291602001916108cb565b820191906000526020600020905b8154815290600101906020018083116108ae57829003601f168201915b505050505081526020016002820160009054906101000a900460ff1660098111156108f257fe5b60098111156108fd57fe5b8152602001600382015481526020016004820160009054906101000a900460ff161515151581526020016004820160019054906101000a900460ff16151515158152505090508060a00151610987576040517f08c379a000000000000000000000000000000000000000000000000000000000815260040161097e90611e08565b60405180910390fd5b600080848152602001908152602001600020600080820160006109aa91906117d7565b6001820160006109ba91906117d7565b6002820160006101000a81549060ff021916905560038201600090556004820160006101000a81549060ff02191690556004820160016101000a81549060ff0219169055505060005b600180549050811015610dc257610a18611792565b60018281548110610a2557fe5b90600052602060002090600502016040518060c0016040529081600082018054600181600116156101000203166002900480601f016020809104026020016040519081016040528092919081815260200182805460018160011615610100020316600290048015610ad75780601f10610aac57610100808354040283529160200191610ad7565b820191906000526020600020905b815481529060010190602001808311610aba57829003601f168201915b50505050508152602001600182018054600181600116156101000203166002900480601f016020809104026020016040519081016040528092919081815260200182805460018160011615610100020316600290048015610b795780601f10610b4e57610100808354040283529160200191610b79565b820191906000526020600020905b815481529060010190602001808311610b5c57829003601f168201915b505050505081526020016002820160009054906101000a900460ff166009811115610ba057fe5b6009811115610bab57fe5b8152602001600382015481526020016004820160009054906101000a900460ff161515151581526020016004820160019054906101000a900460ff16151515158152505090508481606001511415610db45760018080805490500381548110610c1057fe5b906000526020600020906005020160018381548110610c2b57fe5b906000526020600020906005020160008201816000019080546001816001161561010002031660029004610c6092919061181f565b5060018201816001019080546001816001161561010002031660029004610c8892919061181f565b506002820160009054906101000a900460ff168160020160006101000a81548160ff02191690836009811115610cba57fe5b0217905550600382015481600301556004820160009054906101000a900460ff168160040160006101000a81548160ff0219169083151502179055506004820160019054906101000a900460ff168160040160016101000a81548160ff0219169083151502179055509050506001805480610d3157fe5b600190038181906000526020600020906005020160008082016000610d5691906117d7565b600182016000610d6691906117d7565b6002820160006101000a81549060ff021916905560038201600090556004820160006101000a81549060ff02191690556004820160016101000a81549060ff02191690555050905550610dc2565b508080600101915050610a03565b50505050565b80610dd1611792565b6000808381526020019081526020016000206040518060c0016040529081600082018054600181600116156101000203166002900480601f016020809104026020016040519081016040528092919081815260200182805460018160011615610100020316600290048015610e875780601f10610e5c57610100808354040283529160200191610e87565b820191906000526020600020905b815481529060010190602001808311610e6a57829003601f168201915b50505050508152602001600182018054600181600116156101000203166002900480601f016020809104026020016040519081016040528092919081815260200182805460018160011615610100020316600290048015610f295780601f10610efe57610100808354040283529160200191610f29565b820191906000526020600020905b815481529060010190602001808311610f0c57829003601f168201915b505050505081526020016002820160009054906101000a900460ff166009811115610f5057fe5b6009811115610f5b57fe5b8152602001600382015481526020016004820160009054906101000a900460ff161515151581526020016004820160019054906101000a900460ff16151515158152505090508060a00151610fe5576040517f08c379a0000000000000000000000000000000000000000000000000000000008152600401610fdc90611e08565b60405180910390fd5b600160008085815260200190815260200160002060040160006101000a81548160ff02191690831515021790555061101e83600161161a565b505050565b8061102c611792565b6000808381526020019081526020016000206040518060c0016040529081600082018054600181600116156101000203166002900480601f0160208091040260200160405190810160405280929190818152602001828054600181600116156101000203166002900480156110e25780601f106110b7576101008083540402835291602001916110e2565b820191906000526020600020905b8154815290600101906020018083116110c557829003601f168201915b50505050508152602001600182018054600181600116156101000203166002900480601f0160208091040260200160405190810160405280929190818152602001828054600181600116156101000203166002900480156111845780601f1061115957610100808354040283529160200191611184565b820191906000526020600020905b81548152906001019060200180831161116757829003601f168201915b505050505081526020016002820160009054906101000a900460ff1660098111156111ab57fe5b60098111156111b657fe5b8152602001600382015481526020016004820160009054906101000a900460ff161515151581526020016004820160019054906101000a900460ff16151515158152505090508060a00151611240576040517f08c379a000000000000000000000000000000000000000000000000000000000815260040161123790611e08565b60405180910390fd5b600080600085815260200190815260200160002060040160006101000a81548160ff02191690831515021790555061127983600061161a565b505050565b6000600180549050905090565b83838383600084519050600081116112d8576040517f08c379a00000000000000000000000000000000000000000000000000000000081526004016112cf90611e28565b60405180910390fd5b60008451905060008111611321576040517f08c379a000000000000000000000000000000000000000000000000000000000815260040161131890611de8565b60405180910390fd5b60008414806113305750600184145b8061133b5750600284145b806113465750600384145b806113515750600484145b8061135c5750600584145b806113675750600684145b806113725750600784145b8061137d5750600884145b806113885750600984145b6113c7576040517f08c379a00000000000000000000000000000000000000000000000000000000081526004016113be90611e68565b60405180910390fd5b64e8d4a50fff831380156113e057506509184e72a00083125b61141f576040517f08c379a000000000000000000000000000000000000000000000000000000000815260040161141690611e48565b60405180910390fd5b611427611792565b6040518060c001604052808c81526020018b81526020016114478b61169d565b600981111561145257fe5b8152602001898152602001600115158152602001600115158152509050806000808a8152602001908152602001600020600082015181600001908051906020019061149e9291906118a6565b5060208201518160010190805190602001906114bb9291906118a6565b5060408201518160020160006101000a81548160ff021916908360098111156114e057fe5b02179055506060820151816003015560808201518160040160006101000a81548160ff02191690831515021790555060a08201518160040160016101000a81548160ff0219169083151502179055509050506001819080600181540180825580915050600190039060005260206000209060050201600090919091909150600082015181600001908051906020019061157a9291906118a6565b5060208201518160010190805190602001906115979291906118a6565b5060408201518160020160006101000a81548160ff021916908360098111156115bc57fe5b02179055506060820151816003015560808201518160040160006101000a81548160ff02191690831515021790555060a08201518160040160016101000a81548160ff02191690831515021790555050505050505050505050505050565b60005b60018054905081101561169857826001828154811061163857fe5b906000526020600020906005020160030154141561168b57816001828154811061165e57fe5b906000526020600020906005020160040160006101000a81548160ff021916908315150217905550611698565b808060010191505061161d565b505050565b6000808214156116b0576000905061178d565b60018214156116c2576001905061178d565b60028214156116d4576002905061178d565b60038214156116e6576003905061178d565b60048214156116f8576004905061178d565b600582141561170a576005905061178d565b600682141561171c576006905061178d565b600782141561172e576007905061178d565b6008821415611740576008905061178d565b6009821415611752576009905061178d565b6040517f08c379a000000000000000000000000000000000000000000000000000000000815260040161178490611e68565b60405180910390fd5b919050565b6040518060c001604052806060815260200160608152602001600060098111156117b857fe5b8152602001600081526020016000151581526020016000151581525090565b50805460018160011615610100020316600290046000825580601f106117fd575061181c565b601f01602090049060005260206000209081019061181b9190611926565b5b50565b828054600181600116156101000203166002900490600052602060002090601f016020900481019282601f106118585780548555611895565b8280016001018555821561189557600052602060002091601f016020900482015b82811115611894578254825591600101919060010190611879565b5b5090506118a29190611926565b5090565b828054600181600116156101000203166002900490600052602060002090601f016020900481019282601f106118e757805160ff1916838001178555611915565b82800160010185558215611915579182015b828111156119145782518255916020019190600101906118f9565b5b5090506119229190611926565b5090565b5b8082111561193f576000816000905550600101611927565b5090565b60008135905061195281612029565b92915050565b600082601f83011261196957600080fd5b813561197c61197782611ef2565b611ec5565b9150808252602083016020830185838301111561199857600080fd5b6119a3838284611fc9565b50505092915050565b6000602082840312156119be57600080fd5b60006119cc84828501611943565b91505092915050565b600080600080608085870312156119eb57600080fd5b600085013567ffffffffffffffff811115611a0557600080fd5b611a1187828801611958565b945050602085013567ffffffffffffffff811115611a2e57600080fd5b611a3a87828801611958565b9350506040611a4b87828801611943565b9250506060611a5c87828801611943565b91505092959194509250565b6000611a748383611c97565b905092915050565b6000611a8782611f2e565b611a918185611f51565b935083602082028501611aa385611f1e565b8060005b85811015611adf5784840389528151611ac08582611a68565b9450611acb83611f44565b925060208a01995050600181019050611aa7565b50829750879550505050505092915050565b611afa81611f84565b82525050565b611b0981611fb7565b82525050565b611b1881611fa3565b82525050565b6000611b2982611f39565b611b338185611f62565b9350611b43818560208601611fd8565b611b4c8161200b565b840191505092915050565b6000611b64601683611f73565b91507f417574686f722063616e6e6f7420626520656d707479000000000000000000006000830152602082019050919050565b6000611ba4600983611f73565b91507f4e6f7420666f756e6400000000000000000000000000000000000000000000006000830152602082019050919050565b6000611be4601583611f73565b91507f5469746c652063616e6e6f7420626520656d70747900000000000000000000006000830152602082019050919050565b6000611c24600c83611f73565b91507f496e76616c69642049534d4e00000000000000000000000000000000000000006000830152602082019050919050565b6000611c64601583611f73565b91507f496e76616c69642063617465676f7279207479706500000000000000000000006000830152602082019050919050565b600060c0830160008301518482036000860152611cb48282611b1e565b91505060208301518482036020860152611cce8282611b1e565b9150506040830151611ce36040860182611b00565b506060830151611cf66060860182611b0f565b506080830151611d096080860182611af1565b5060a0830151611d1c60a0860182611af1565b508091505092915050565b600060c0830160008301518482036000860152611d448282611b1e565b91505060208301518482036020860152611d5e8282611b1e565b9150506040830151611d736040860182611b00565b506060830151611d866060860182611b0f565b506080830151611d996080860182611af1565b5060a0830151611dac60a0860182611af1565b508091505092915050565b611dc081611fad565b82525050565b60006020820190508181036000830152611de08184611a7c565b905092915050565b60006020820190508181036000830152611e0181611b57565b9050919050565b60006020820190508181036000830152611e2181611b97565b9050919050565b60006020820190508181036000830152611e4181611bd7565b9050919050565b60006020820190508181036000830152611e6181611c17565b9050919050565b60006020820190508181036000830152611e8181611c57565b9050919050565b60006020820190508181036000830152611ea28184611d27565b905092915050565b6000602082019050611ebf6000830184611db7565b92915050565b6000604051905081810181811067ffffffffffffffff82111715611ee857600080fd5b8060405250919050565b600067ffffffffffffffff821115611f0957600080fd5b601f19601f8301169050602081019050919050565b6000819050602082019050919050565b600081519050919050565b600081519050919050565b6000602082019050919050565b600082825260208201905092915050565b600082825260208201905092915050565b600082825260208201905092915050565b60008115159050919050565b6000819050611f9e8261201c565b919050565b6000819050919050565b6000819050919050565b6000611fc282611f90565b9050919050565b82818337600083830152505050565b60005b83811015611ff6578082015181840152602081019050611fdb565b83811115612005576000848401525b50505050565b6000601f19601f8301169050919050565b600a811061202657fe5b50565b61203281611fa3565b811461203d57600080fd5b5056fea2646970667358221220b77b5ef8236277a78fab7c00ab66ebe580c404e15c57e20f093f8140b931eae464736f6c63430007000033",
  "immutableReferences": {},
  "source": "// SPDX-License-Identifier: MIT\r\npragma solidity ^0.7.0;\r\npragma experimental ABIEncoderV2;\r\n\r\ncontract MyGallery {\r\n    enum Category {Pop, Indie, Rock, HipHop, Mood, Chill, RnB, Romance, Jazz, Anime}\r\n\r\n    struct Song {\r\n        string title;\r\n        string author;\r\n        Category category;\r\n        int256 ismn;\r\n        bool available;\r\n        bool exists;\r\n    }\r\n\r\n    mapping(int256 => Song) private songs;\r\n    Song[] private songList;\r\n\r\n    modifier validateAddSong (\r\n        string memory title,\r\n        string memory author,\r\n        int256 category,\r\n        int256 ismn\r\n    ) {\r\n        uint256 titleLength = bytes(title).length;\r\n        require(titleLength > 0, \"Title cannot be empty\");\r\n\r\n        uint256 authorLength = bytes(author).length;\r\n        require(authorLength > 0, \"Author cannot be empty\");\r\n\r\n        require(category == 0 || category == 1 || category == 2 || category == 3 || category == 4 ||\r\n                category == 5 || category == 6 || category == 7 || category == 8 || category == 9, \"Invalid category type\"\r\n        );\r\n\r\n        require(ismn > 999999999999 && ismn < 10000000000000, \"Invalid ISMN\");\r\n\r\n        _;\r\n    }\r\n\r\n    modifier songExist(int256 ismn) {\r\n        Song memory song = songs[ismn];\r\n        require(song.exists, \"Not found\");\r\n\r\n        _;\r\n    }\r\n\r\n    function addSong(\r\n        string memory title,\r\n        string memory author,\r\n        int256 category,\r\n        int256 ismn\r\n    ) external validateAddSong(title, author, category, ismn) {\r\n        Song memory newSong = Song(\r\n            title,\r\n            author,\r\n            mapCategoryType(category),\r\n            ismn,\r\n            true,\r\n            true\r\n        );\r\n\r\n        songs[ismn] = newSong;\r\n        songList.push(newSong);\r\n    }\r\n\r\n    function getSong(int256 ismn) external view songExist(ismn) returns (Song memory){\r\n        return songs[ismn];\r\n    }\r\n\r\n    function deleteSong(int256 ismn) external songExist(ismn) {\r\n        delete songs[ismn];\r\n\r\n        for(uint i = 0; i < songList.length; i++) {\r\n            Song memory song = songList[i];\r\n            \r\n            if(song.ismn == ismn) {\r\n                songList[i] = songList[songList.length - 1];\r\n                songList.pop();\r\n                break;\r\n            }\r\n        }\r\n    }\r\n\r\n    // *Purchase Song*\r\n    function issueSong(int256 ismn) external songExist(ismn) {\r\n        songs[ismn].available = false;\r\n        setListedSongAvailability(ismn, false);\r\n    }\r\n\r\n    // *Return Song*\r\n    function returnSong(int256 ismn) external songExist(ismn) {\r\n        songs[ismn].available = true;\r\n        setListedSongAvailability(ismn, true);\r\n    }\r\n\r\n    function getSongCount() external view returns (uint256) {\r\n        return songList.length;\r\n    }\r\n\r\n    function getAllSongs() external view returns (Song[] memory) {\r\n        return songList;\r\n    }\r\n\r\n    function mapCategoryType(int256 category) private pure returns (Category){\r\n        if(category == 0){\r\n            return Category.Pop;\r\n        }\r\n\r\n        if(category == 1){\r\n            return Category.Indie;\r\n        }\r\n\r\n        if(category == 2){\r\n            return Category.Rock;\r\n        }\r\n\r\n        if(category == 3){\r\n            return Category.HipHop;\r\n        }\r\n\r\n        if(category == 4){\r\n            return Category.Mood;\r\n        }\r\n\r\n        if(category == 5){\r\n            return Category.Chill;\r\n        }\r\n\r\n        if(category == 6){\r\n            return Category.RnB;\r\n        }\r\n\r\n        if(category == 7){\r\n            return Category.Romance;\r\n        }\r\n\r\n        if(category == 8){\r\n            return Category.Jazz;\r\n        }\r\n\r\n        if(category == 9){\r\n            return Category.Anime;\r\n        }\r\n\r\n        revert(\"Invalid category type\");\r\n    }\r\n\r\n    function setListedSongAvailability(int256 ismn, bool available) private {\r\n        for(uint256 i = 0; i < songList.length; i++) {\r\n            if (songList[i].ismn == ismn) {\r\n                songList[i].available = available;\r\n                break;\r\n            }\r\n        }\r\n    }\r\n}",
  "sourcePath": "C:/Users/kensh/Documents/GitHub/vue-store/contracts/MyGallery.sol",
  "compiler": {
    "name": "solc",
    "version": "0.7.0+commit.9e61f92b.Emscripten.clang"
  },
  "schemaVersion": "3.3.1",
  "updatedAt": "2020-12-01T15:08:55.029Z",
  "networkType": "ethereum",
  "devdoc": {
    "kind": "dev",
    "methods": {},
    "version": 1
  },
  "userdoc": {
    "kind": "user",
    "methods": {},
    "version": 1
  }
}