{
  "contractName": "MyGallery",
  "abi": [
    {
      "inputs": [
        {
          "internalType": "string",
          "name": "title",
          "type": "string"
        },
        {
          "internalType": "string",
          "name": "author",
          "type": "string"
        },
        {
          "internalType": "int256",
          "name": "category",
          "type": "int256"
        },
        {
          "internalType": "int256",
          "name": "ismn",
          "type": "int256"
        }
      ],
      "name": "addSong",
      "outputs": [],
      "stateMutability": "nonpayable",
      "type": "function"
    },
    {
      "inputs": [
        {
          "internalType": "int256",
          "name": "ismn",
          "type": "int256"
        }
      ],
      "name": "getSong",
      "outputs": [
        {
          "components": [
            {
              "internalType": "string",
              "name": "title",
              "type": "string"
            },
            {
              "internalType": "string",
              "name": "author",
              "type": "string"
            },
            {
              "internalType": "enum MyGallery.Category",
              "name": "category",
              "type": "uint8"
            },
            {
              "internalType": "int256",
              "name": "ismn",
              "type": "int256"
            },
            {
              "internalType": "bool",
              "name": "available",
              "type": "bool"
            },
            {
              "internalType": "bool",
              "name": "exists",
              "type": "bool"
            }
          ],
          "internalType": "struct MyGallery.Song",
          "name": "",
          "type": "tuple"
        }
      ],
      "stateMutability": "view",
      "type": "function",
      "constant": true
    },
    {
      "inputs": [
        {
          "internalType": "int256",
          "name": "ismn",
          "type": "int256"
        }
      ],
      "name": "deleteSong",
      "outputs": [],
      "stateMutability": "nonpayable",
      "type": "function"
    },
    {
      "inputs": [
        {
          "internalType": "int256",
          "name": "ismn",
          "type": "int256"
        }
      ],
      "name": "issueSong",
      "outputs": [],
      "stateMutability": "nonpayable",
      "type": "function"
    },
    {
      "inputs": [
        {
          "internalType": "int256",
          "name": "ismn",
          "type": "int256"
        }
      ],
      "name": "returnSong",
      "outputs": [],
      "stateMutability": "nonpayable",
      "type": "function"
    },
    {
      "inputs": [],
      "name": "getSongCount",
      "outputs": [
        {
          "internalType": "uint256",
          "name": "",
          "type": "uint256"
        }
      ],
      "stateMutability": "view",
      "type": "function",
      "constant": true
    },
    {
      "inputs": [],
      "name": "getAllSongs",
      "outputs": [
        {
          "components": [
            {
              "internalType": "string",
              "name": "title",
              "type": "string"
            },
            {
              "internalType": "string",
              "name": "author",
              "type": "string"
            },
            {
              "internalType": "enum MyGallery.Category",
              "name": "category",
              "type": "uint8"
            },
            {
              "internalType": "int256",
              "name": "ismn",
              "type": "int256"
            },
            {
              "internalType": "bool",
              "name": "available",
              "type": "bool"
            },
            {
              "internalType": "bool",
              "name": "exists",
              "type": "bool"
            }
          ],
          "internalType": "struct MyGallery.Song[]",
          "name": "",
          "type": "tuple[]"
        }
      ],
      "stateMutability": "view",
      "type": "function",
      "constant": true
    },
    {
      "inputs": [],
      "name": "getPurchasedSongs",
      "outputs": [
        {
          "components": [
            {
              "internalType": "string",
              "name": "title",
              "type": "string"
            },
            {
              "internalType": "string",
              "name": "author",
              "type": "string"
            },
            {
              "internalType": "enum MyGallery.Category",
              "name": "category",
              "type": "uint8"
            },
            {
              "internalType": "int256",
              "name": "ismn",
              "type": "int256"
            },
            {
              "internalType": "bool",
              "name": "available",
              "type": "bool"
            },
            {
              "internalType": "bool",
              "name": "exists",
              "type": "bool"
            }
          ],
          "internalType": "struct MyGallery.Song[]",
          "name": "",
          "type": "tuple[]"
        }
      ],
      "stateMutability": "view",
      "type": "function",
      "constant": true
    },
    {
      "inputs": [],
      "name": "getCreatedSongs",
      "outputs": [
        {
          "components": [
            {
              "internalType": "string",
              "name": "title",
              "type": "string"
            },
            {
              "internalType": "string",
              "name": "author",
              "type": "string"
            },
            {
              "internalType": "enum MyGallery.Category",
              "name": "category",
              "type": "uint8"
            },
            {
              "internalType": "int256",
              "name": "ismn",
              "type": "int256"
            },
            {
              "internalType": "bool",
              "name": "available",
              "type": "bool"
            },
            {
              "internalType": "bool",
              "name": "exists",
              "type": "bool"
            }
          ],
          "internalType": "struct MyGallery.Song[]",
          "name": "",
          "type": "tuple[]"
        }
      ],
      "stateMutability": "view",
      "type": "function",
      "constant": true
    }
  ],
  "bytecode": "0x608060405234801561001057600080fd5b50612d31806100206000396000f3fe608060405234801561001057600080fd5b50600436106100935760003560e01c8063af97c5c011610066578063af97c5c014610120578063b8321bc81461013c578063ba1fb43f1461015a578063ca487ad914610176578063f956533a1461019457610093565b80630be227921461009857806329ef6862146100c857806366901d88146100e6578063819325f514610104575b600080fd5b6100b260048036038101906100ad9190612667565b6101b0565b6040516100bf9190612b43565b60405180910390f35b6100d06105ac565b6040516100dd9190612a81565b60405180910390f35b6100ee6107bc565b6040516100fb9190612a81565b60405180910390f35b61011e60048036038101906101199190612667565b610a0c565b005b61013a60048036038101906101359190612667565b6115af565b005b61014461180a565b6040516101519190612a81565b60405180910390f35b610174600480360381019061016f9190612667565b611a5a565b005b61017e611e1e565b60405161018b9190612b65565b60405180910390f35b6101ae60048036038101906101a99190612690565b611e2b565b005b6101b861244d565b816101c161244d565b6000808381526020019081526020016000206040518060c0016040529081600082018054600181600116156101000203166002900480601f0160208091040260200160405190810160405280929190818152602001828054600181600116156101000203166002900480156102775780601f1061024c57610100808354040283529160200191610277565b820191906000526020600020905b81548152906001019060200180831161025a57829003601f168201915b50505050508152602001600182018054600181600116156101000203166002900480601f0160208091040260200160405190810160405280929190818152602001828054600181600116156101000203166002900480156103195780601f106102ee57610100808354040283529160200191610319565b820191906000526020600020905b8154815290600101906020018083116102fc57829003601f168201915b505050505081526020016002820160009054906101000a900460ff16600981111561034057fe5b600981111561034b57fe5b8152602001600382015481526020016004820160009054906101000a900460ff161515151581526020016004820160019054906101000a900460ff16151515158152505090508060a001516103d5576040517f08c379a00000000000000000000000000000000000000000000000000000000081526004016103cc90612ac3565b60405180910390fd5b6000808581526020019081526020016000206040518060c0016040529081600082018054600181600116156101000203166002900480601f01602080910402602001604051908101604052809291908181526020018280546001816001161561010002031660029004801561048b5780601f106104605761010080835404028352916020019161048b565b820191906000526020600020905b81548152906001019060200180831161046e57829003601f168201915b50505050508152602001600182018054600181600116156101000203166002900480601f01602080910402602001604051908101604052809291908181526020018280546001816001161561010002031660029004801561052d5780601f106105025761010080835404028352916020019161052d565b820191906000526020600020905b81548152906001019060200180831161051057829003601f168201915b505050505081526020016002820160009054906101000a900460ff16600981111561055457fe5b600981111561055f57fe5b8152602001600382015481526020016004820160009054906101000a900460ff161515151581526020016004820160019054906101000a900460ff16151515158152505092505050919050565b60606001805480602002602001604051908101604052809291908181526020016000905b828210156107b357838290600052602060002090600502016040518060c0016040529081600082018054600181600116156101000203166002900480601f01602080910402602001604051908101604052809291908181526020018280546001816001161561010002031660029004801561068c5780601f106106615761010080835404028352916020019161068c565b820191906000526020600020905b81548152906001019060200180831161066f57829003601f168201915b50505050508152602001600182018054600181600116156101000203166002900480601f01602080910402602001604051908101604052809291908181526020018280546001816001161561010002031660029004801561072e5780601f106107035761010080835404028352916020019161072e565b820191906000526020600020905b81548152906001019060200180831161071157829003601f168201915b505050505081526020016002820160009054906101000a900460ff16600981111561075557fe5b600981111561076057fe5b8152602001600382015481526020016004820160009054906101000a900460ff161515151581526020016004820160019054906101000a900460ff161515151581525050815260200190600101906105d0565b50505050905090565b6060600260003373ffffffffffffffffffffffffffffffffffffffff1673ffffffffffffffffffffffffffffffffffffffff168152602001908152602001600020600101805480602002602001604051908101604052809291908181526020016000905b82821015610a0357838290600052602060002090600502016040518060c0016040529081600082018054600181600116156101000203166002900480601f0160208091040260200160405190810160405280929190818152602001828054600181600116156101000203166002900480156108dc5780601f106108b1576101008083540402835291602001916108dc565b820191906000526020600020905b8154815290600101906020018083116108bf57829003601f168201915b50505050508152602001600182018054600181600116156101000203166002900480601f01602080910402602001604051908101604052809291908181526020018280546001816001161561010002031660029004801561097e5780601f106109535761010080835404028352916020019161097e565b820191906000526020600020905b81548152906001019060200180831161096157829003601f168201915b505050505081526020016002820160009054906101000a900460ff1660098111156109a557fe5b60098111156109b057fe5b8152602001600382015481526020016004820160009054906101000a900460ff161515151581526020016004820160019054906101000a900460ff16151515158152505081526020019060010190610820565b50505050905090565b80610a1561244d565b6000808381526020019081526020016000206040518060c0016040529081600082018054600181600116156101000203166002900480601f016020809104026020016040519081016040528092919081815260200182805460018160011615610100020316600290048015610acb5780601f10610aa057610100808354040283529160200191610acb565b820191906000526020600020905b815481529060010190602001808311610aae57829003601f168201915b50505050508152602001600182018054600181600116156101000203166002900480601f016020809104026020016040519081016040528092919081815260200182805460018160011615610100020316600290048015610b6d5780601f10610b4257610100808354040283529160200191610b6d565b820191906000526020600020905b815481529060010190602001808311610b5057829003601f168201915b505050505081526020016002820160009054906101000a900460ff166009811115610b9457fe5b6009811115610b9f57fe5b8152602001600382015481526020016004820160009054906101000a900460ff161515151581526020016004820160019054906101000a900460ff16151515158152505090508060a00151610c29576040517f08c379a0000000000000000000000000000000000000000000000000000000008152600401610c2090612ac3565b60405180910390fd5b60008084815260200190815260200160002060008082016000610c4c9190612492565b600182016000610c5c9190612492565b6002820160006101000a81549060ff021916905560038201600090556004820160006101000a81549060ff02191690556004820160016101000a81549060ff0219169055505060005b60018054905081101561106457610cba61244d565b60018281548110610cc757fe5b90600052602060002090600502016040518060c0016040529081600082018054600181600116156101000203166002900480601f016020809104026020016040519081016040528092919081815260200182805460018160011615610100020316600290048015610d795780601f10610d4e57610100808354040283529160200191610d79565b820191906000526020600020905b815481529060010190602001808311610d5c57829003601f168201915b50505050508152602001600182018054600181600116156101000203166002900480601f016020809104026020016040519081016040528092919081815260200182805460018160011615610100020316600290048015610e1b5780601f10610df057610100808354040283529160200191610e1b565b820191906000526020600020905b815481529060010190602001808311610dfe57829003601f168201915b505050505081526020016002820160009054906101000a900460ff166009811115610e4257fe5b6009811115610e4d57fe5b8152602001600382015481526020016004820160009054906101000a900460ff161515151581526020016004820160019054906101000a900460ff161515151581525050905084816060015114156110565760018080805490500381548110610eb257fe5b906000526020600020906005020160018381548110610ecd57fe5b906000526020600020906005020160008201816000019080546001816001161561010002031660029004610f029291906124da565b5060018201816001019080546001816001161561010002031660029004610f2a9291906124da565b506002820160009054906101000a900460ff168160020160006101000a81548160ff02191690836009811115610f5c57fe5b0217905550600382015481600301556004820160009054906101000a900460ff168160040160006101000a81548160ff0219169083151502179055506004820160019054906101000a900460ff168160040160016101000a81548160ff0219169083151502179055509050506001805480610fd357fe5b600190038181906000526020600020906005020160008082016000610ff89190612492565b6001820160006110089190612492565b6002820160006101000a81549060ff021916905560038201600090556004820160006101000a81549060ff02191690556004820160016101000a81549060ff02191690555050905550611064565b508080600101915050610ca5565b5060005b600260003373ffffffffffffffffffffffffffffffffffffffff1673ffffffffffffffffffffffffffffffffffffffff168152602001908152602001600020600101805490508110156115a9576110bd61244d565b600260003373ffffffffffffffffffffffffffffffffffffffff1673ffffffffffffffffffffffffffffffffffffffff168152602001908152602001600020600101828154811061110a57fe5b90600052602060002090600502016040518060c0016040529081600082018054600181600116156101000203166002900480601f0160208091040260200160405190810160405280929190818152602001828054600181600116156101000203166002900480156111bc5780601f10611191576101008083540402835291602001916111bc565b820191906000526020600020905b81548152906001019060200180831161119f57829003601f168201915b50505050508152602001600182018054600181600116156101000203166002900480601f01602080910402602001604051908101604052809291908181526020018280546001816001161561010002031660029004801561125e5780601f106112335761010080835404028352916020019161125e565b820191906000526020600020905b81548152906001019060200180831161124157829003601f168201915b505050505081526020016002820160009054906101000a900460ff16600981111561128557fe5b600981111561129057fe5b8152602001600382015481526020016004820160009054906101000a900460ff161515151581526020016004820160019054906101000a900460ff1615151515815250509050848160600151141561159b57600260003373ffffffffffffffffffffffffffffffffffffffff1673ffffffffffffffffffffffffffffffffffffffff1681526020019081526020016000206001016001600260003373ffffffffffffffffffffffffffffffffffffffff1673ffffffffffffffffffffffffffffffffffffffff16815260200190815260200160002060010180549050038154811061137757fe5b9060005260206000209060050201600260003373ffffffffffffffffffffffffffffffffffffffff1673ffffffffffffffffffffffffffffffffffffffff16815260200190815260200160002060010183815481106113d257fe5b9060005260206000209060050201600082018160000190805460018160011615610100020316600290046114079291906124da565b506001820181600101908054600181600116156101000203166002900461142f9291906124da565b506002820160009054906101000a900460ff168160020160006101000a81548160ff0219169083600981111561146157fe5b0217905550600382015481600301556004820160009054906101000a900460ff168160040160006101000a81548160ff0219169083151502179055506004820160019054906101000a900460ff168160040160016101000a81548160ff021916908315150217905550905050600260003373ffffffffffffffffffffffffffffffffffffffff1673ffffffffffffffffffffffffffffffffffffffff16815260200190815260200160002060010180548061151857fe5b60019003818190600052602060002090600502016000808201600061153d9190612492565b60018201600061154d9190612492565b6002820160006101000a81549060ff021916905560038201600090556004820160006101000a81549060ff02191690556004820160016101000a81549060ff021916905550509055506115a9565b508080600101915050611068565b50505050565b806115b861244d565b6000808381526020019081526020016000206040518060c0016040529081600082018054600181600116156101000203166002900480601f01602080910402602001604051908101604052809291908181526020018280546001816001161561010002031660029004801561166e5780601f106116435761010080835404028352916020019161166e565b820191906000526020600020905b81548152906001019060200180831161165157829003601f168201915b50505050508152602001600182018054600181600116156101000203166002900480601f0160208091040260200160405190810160405280929190818152602001828054600181600116156101000203166002900480156117105780601f106116e557610100808354040283529160200191611710565b820191906000526020600020905b8154815290600101906020018083116116f357829003601f168201915b505050505081526020016002820160009054906101000a900460ff16600981111561173757fe5b600981111561174257fe5b8152602001600382015481526020016004820160009054906101000a900460ff161515151581526020016004820160019054906101000a900460ff16151515158152505090508060a001516117cc576040517f08c379a00000000000000000000000000000000000000000000000000000000081526004016117c390612ac3565b60405180910390fd5b600160008085815260200190815260200160002060040160006101000a81548160ff0219169083151502179055506118058360016122d5565b505050565b6060600260003373ffffffffffffffffffffffffffffffffffffffff1673ffffffffffffffffffffffffffffffffffffffff168152602001908152602001600020600201805480602002602001604051908101604052809291908181526020016000905b82821015611a5157838290600052602060002090600502016040518060c0016040529081600082018054600181600116156101000203166002900480601f01602080910402602001604051908101604052809291908181526020018280546001816001161561010002031660029004801561192a5780601f106118ff5761010080835404028352916020019161192a565b820191906000526020600020905b81548152906001019060200180831161190d57829003601f168201915b50505050508152602001600182018054600181600116156101000203166002900480601f0160208091040260200160405190810160405280929190818152602001828054600181600116156101000203166002900480156119cc5780601f106119a1576101008083540402835291602001916119cc565b820191906000526020600020905b8154815290600101906020018083116119af57829003601f168201915b505050505081526020016002820160009054906101000a900460ff1660098111156119f357fe5b60098111156119fe57fe5b8152602001600382015481526020016004820160009054906101000a900460ff161515151581526020016004820160019054906101000a900460ff1615151515815250508152602001906001019061186e565b50505050905090565b80611a6361244d565b6000808381526020019081526020016000206040518060c0016040529081600082018054600181600116156101000203166002900480601f016020809104026020016040519081016040528092919081815260200182805460018160011615610100020316600290048015611b195780601f10611aee57610100808354040283529160200191611b19565b820191906000526020600020905b815481529060010190602001808311611afc57829003601f168201915b50505050508152602001600182018054600181600116156101000203166002900480601f016020809104026020016040519081016040528092919081815260200182805460018160011615610100020316600290048015611bbb5780601f10611b9057610100808354040283529160200191611bbb565b820191906000526020600020905b815481529060010190602001808311611b9e57829003601f168201915b505050505081526020016002820160009054906101000a900460ff166009811115611be257fe5b6009811115611bed57fe5b8152602001600382015481526020016004820160009054906101000a900460ff161515151581526020016004820160019054906101000a900460ff16151515158152505090508060a00151611c77576040517f08c379a0000000000000000000000000000000000000000000000000000000008152600401611c6e90612ac3565b60405180910390fd5b600080600085815260200190815260200160002060040160006101000a81548160ff021916908315150217905550611cb08360006122d5565b600260003373ffffffffffffffffffffffffffffffffffffffff1673ffffffffffffffffffffffffffffffffffffffff168152602001908152602001600020600201600080858152602001908152602001600020908060018154018082558091505060019003906000526020600020906005020160009091909190915060008201816000019080546001816001161561010002031660029004611d549291906124da565b5060018201816001019080546001816001161561010002031660029004611d7c9291906124da565b506002820160009054906101000a900460ff168160020160006101000a81548160ff02191690836009811115611dae57fe5b0217905550600382015481600301556004820160009054906101000a900460ff168160040160006101000a81548160ff0219169083151502179055506004820160019054906101000a900460ff168160040160016101000a81548160ff0219169083151502179055505050505050565b6000600180549050905090565b8383838360008451905060008111611e78576040517f08c379a0000000000000000000000000000000000000000000000000000000008152600401611e6f90612ae3565b60405180910390fd5b60008451905060008111611ec1576040517f08c379a0000000000000000000000000000000000000000000000000000000008152600401611eb890612aa3565b60405180910390fd5b6000841480611ed05750600184145b80611edb5750600284145b80611ee65750600384145b80611ef15750600484145b80611efc5750600584145b80611f075750600684145b80611f125750600784145b80611f1d5750600884145b80611f285750600984145b611f67576040517f08c379a0000000000000000000000000000000000000000000000000000000008152600401611f5e90612b23565b60405180910390fd5b64e8d4a50fff83138015611f8057506509184e72a00083125b611fbf576040517f08c379a0000000000000000000000000000000000000000000000000000000008152600401611fb690612b03565b60405180910390fd5b611fc761244d565b6040518060c001604052808c81526020018b8152602001611fe78b612358565b6009811115611ff257fe5b8152602001898152602001600115158152602001600115158152509050806000808a8152602001908152602001600020600082015181600001908051906020019061203e929190612561565b50602082015181600101908051906020019061205b929190612561565b5060408201518160020160006101000a81548160ff0219169083600981111561208057fe5b02179055506060820151816003015560808201518160040160006101000a81548160ff02191690831515021790555060a08201518160040160016101000a81548160ff0219169083151502179055509050506001819080600181540180825580915050600190039060005260206000209060050201600090919091909150600082015181600001908051906020019061211a929190612561565b506020820151816001019080519060200190612137929190612561565b5060408201518160020160006101000a81548160ff0219169083600981111561215c57fe5b02179055506060820151816003015560808201518160040160006101000a81548160ff02191690831515021790555060a08201518160040160016101000a81548160ff0219169083151502179055505050600260003373ffffffffffffffffffffffffffffffffffffffff1673ffffffffffffffffffffffffffffffffffffffff1681526020019081526020016000206001018190806001815401808255809150506001900390600052602060002090600502016000909190919091506000820151816000019080519060200190612235929190612561565b506020820151816001019080519060200190612252929190612561565b5060408201518160020160006101000a81548160ff0219169083600981111561227757fe5b02179055506060820151816003015560808201518160040160006101000a81548160ff02191690831515021790555060a08201518160040160016101000a81548160ff02191690831515021790555050505050505050505050505050565b60005b6001805490508110156123535782600182815481106122f357fe5b906000526020600020906005020160030154141561234657816001828154811061231957fe5b906000526020600020906005020160040160006101000a81548160ff021916908315150217905550612353565b80806001019150506122d8565b505050565b60008082141561236b5760009050612448565b600182141561237d5760019050612448565b600282141561238f5760029050612448565b60038214156123a15760039050612448565b60048214156123b35760049050612448565b60058214156123c55760059050612448565b60068214156123d75760069050612448565b60078214156123e95760079050612448565b60088214156123fb5760089050612448565b600982141561240d5760099050612448565b6040517f08c379a000000000000000000000000000000000000000000000000000000000815260040161243f90612b23565b60405180910390fd5b919050565b6040518060c0016040528060608152602001606081526020016000600981111561247357fe5b8152602001600081526020016000151581526020016000151581525090565b50805460018160011615610100020316600290046000825580601f106124b857506124d7565b601f0160209004906000526020600020908101906124d691906125e1565b5b50565b828054600181600116156101000203166002900490600052602060002090601f016020900481019282601f106125135780548555612550565b8280016001018555821561255057600052602060002091601f016020900482015b8281111561254f578254825591600101919060010190612534565b5b50905061255d91906125e1565b5090565b828054600181600116156101000203166002900490600052602060002090601f016020900481019282601f106125a257805160ff19168380011785556125d0565b828001600101855582156125d0579182015b828111156125cf5782518255916020019190600101906125b4565b5b5090506125dd91906125e1565b5090565b5b808211156125fa5760008160009055506001016125e2565b5090565b60008135905061260d81612ce4565b92915050565b600082601f83011261262457600080fd5b813561263761263282612bad565b612b80565b9150808252602083016020830185838301111561265357600080fd5b61265e838284612c84565b50505092915050565b60006020828403121561267957600080fd5b6000612687848285016125fe565b91505092915050565b600080600080608085870312156126a657600080fd5b600085013567ffffffffffffffff8111156126c057600080fd5b6126cc87828801612613565b945050602085013567ffffffffffffffff8111156126e957600080fd5b6126f587828801612613565b9350506040612706878288016125fe565b9250506060612717878288016125fe565b91505092959194509250565b600061272f8383612952565b905092915050565b600061274282612be9565b61274c8185612c0c565b93508360208202850161275e85612bd9565b8060005b8581101561279a578484038952815161277b8582612723565b945061278683612bff565b925060208a01995050600181019050612762565b50829750879550505050505092915050565b6127b581612c3f565b82525050565b6127c481612c72565b82525050565b6127d381612c5e565b82525050565b60006127e482612bf4565b6127ee8185612c1d565b93506127fe818560208601612c93565b61280781612cc6565b840191505092915050565b600061281f601683612c2e565b91507f417574686f722063616e6e6f7420626520656d707479000000000000000000006000830152602082019050919050565b600061285f600983612c2e565b91507f4e6f7420666f756e6400000000000000000000000000000000000000000000006000830152602082019050919050565b600061289f601583612c2e565b91507f5469746c652063616e6e6f7420626520656d70747900000000000000000000006000830152602082019050919050565b60006128df600c83612c2e565b91507f496e76616c69642049534d4e00000000000000000000000000000000000000006000830152602082019050919050565b600061291f601583612c2e565b91507f496e76616c69642063617465676f7279207479706500000000000000000000006000830152602082019050919050565b600060c083016000830151848203600086015261296f82826127d9565b9150506020830151848203602086015261298982826127d9565b915050604083015161299e60408601826127bb565b5060608301516129b160608601826127ca565b5060808301516129c460808601826127ac565b5060a08301516129d760a08601826127ac565b508091505092915050565b600060c08301600083015184820360008601526129ff82826127d9565b91505060208301518482036020860152612a1982826127d9565b9150506040830151612a2e60408601826127bb565b506060830151612a4160608601826127ca565b506080830151612a5460808601826127ac565b5060a0830151612a6760a08601826127ac565b508091505092915050565b612a7b81612c68565b82525050565b60006020820190508181036000830152612a9b8184612737565b905092915050565b60006020820190508181036000830152612abc81612812565b9050919050565b60006020820190508181036000830152612adc81612852565b9050919050565b60006020820190508181036000830152612afc81612892565b9050919050565b60006020820190508181036000830152612b1c816128d2565b9050919050565b60006020820190508181036000830152612b3c81612912565b9050919050565b60006020820190508181036000830152612b5d81846129e2565b905092915050565b6000602082019050612b7a6000830184612a72565b92915050565b6000604051905081810181811067ffffffffffffffff82111715612ba357600080fd5b8060405250919050565b600067ffffffffffffffff821115612bc457600080fd5b601f19601f8301169050602081019050919050565b6000819050602082019050919050565b600081519050919050565b600081519050919050565b6000602082019050919050565b600082825260208201905092915050565b600082825260208201905092915050565b600082825260208201905092915050565b60008115159050919050565b6000819050612c5982612cd7565b919050565b6000819050919050565b6000819050919050565b6000612c7d82612c4b565b9050919050565b82818337600083830152505050565b60005b83811015612cb1578082015181840152602081019050612c96565b83811115612cc0576000848401525b50505050565b6000601f19601f8301169050919050565b600a8110612ce157fe5b50565b612ced81612c5e565b8114612cf857600080fd5b5056fea264697066735822122077a3a00e5061838eaaf8acdd9091e0d96db9ec7b90a12e71fe450956762a121864736f6c63430007000033",
  "immutableReferences": {},
  "source": "// SPDX-License-Identifier: MIT\r\npragma solidity ^0.7.0;\r\npragma experimental ABIEncoderV2;\r\n\r\ncontract MyGallery {\r\n    enum Category {Pop, Indie, Rock, HipHop, Mood, Chill, RnB, Romance, Jazz, Anime}\r\n\r\n    struct Song {\r\n        string title;\r\n        string author;\r\n        Category category;\r\n        int256 ismn;\r\n        bool available;\r\n        bool exists;\r\n    }\r\n\r\n    struct Users{\r\n        string userName;\r\n        Song[] songCreated;\r\n        Song[] songPurchased;\r\n    }\r\n    \r\n    mapping(int256 => Song) private songs;\r\n    Song[] private songList;\r\n    mapping(address => Users) private user;\r\n\r\n\r\n    modifier validateAddSong (\r\n        string memory title,\r\n        string memory author,\r\n        int256 category,\r\n        int256 ismn\r\n    ) {\r\n        uint256 titleLength = bytes(title).length;\r\n        require(titleLength > 0, \"Title cannot be empty\");\r\n\r\n        uint256 authorLength = bytes(author).length;\r\n        require(authorLength > 0, \"Author cannot be empty\");\r\n\r\n        require(category == 0 || category == 1 || category == 2 || category == 3 || category == 4 ||\r\n                category == 5 || category == 6 || category == 7 || category == 8 || category == 9, \"Invalid category type\"\r\n        );\r\n\r\n        require(ismn > 999999999999 && ismn < 10000000000000, \"Invalid ISMN\");\r\n\r\n        _;\r\n    }\r\n\r\n    modifier songExist(int256 ismn) {\r\n        Song memory song = songs[ismn];\r\n        require(song.exists, \"Not found\");\r\n\r\n        _;\r\n    }\r\n\r\n    function addSong(\r\n        string memory title,\r\n        string memory author,\r\n        int256 category,\r\n        int256 ismn\r\n    ) external validateAddSong(title, author, category, ismn) {\r\n        Song memory newSong = Song(\r\n            title,\r\n            author,\r\n            mapCategoryType(category),\r\n            ismn,\r\n            true,\r\n            true\r\n        );\r\n\r\n        songs[ismn] = newSong;\r\n        songList.push(newSong);\r\n        \r\n        user[msg.sender].songCreated.push(newSong);\r\n        \r\n    }\r\n\r\n    function getSong(int256 ismn) external view songExist(ismn) returns (Song memory){\r\n        return songs[ismn];\r\n    }\r\n\r\n    function deleteSong(int256 ismn) external songExist(ismn) {\r\n        delete songs[ismn];\r\n    \r\n        for(uint i = 0; i < songList.length; i++) {\r\n            Song memory song = songList[i];\r\n            \r\n            if(song.ismn == ismn) {\r\n                songList[i] = songList[songList.length - 1];\r\n                songList.pop();\r\n                break;\r\n            }\r\n        }\r\n        \r\n        for(uint i=0; i<user[msg.sender].songCreated.length;i++){\r\n            Song memory song = user[msg.sender].songCreated[i];\r\n            \r\n            if(song.ismn == ismn){\r\n                user[msg.sender].songCreated[i] = user[msg.sender].songCreated[user[msg.sender].songCreated.length-1];\r\n                user[msg.sender].songCreated.pop();\r\n                break;\r\n            }\r\n        }\r\n\r\n    }\r\n\r\n    // *Purchase Song*\r\n    function issueSong(int256 ismn) external songExist(ismn) {\r\n        songs[ismn].available = false;\r\n        setListedSongAvailability(ismn, false);\r\n        user[msg.sender].songPurchased.push(songs[ismn]);\r\n    }\r\n\r\n    // *Return Song*\r\n    function returnSong(int256 ismn) external songExist(ismn) {\r\n        songs[ismn].available = true;\r\n        setListedSongAvailability(ismn, true);\r\n    }\r\n    \r\n    function getSongCount() external view returns (uint256) {\r\n        return songList.length;\r\n    }\r\n\r\n    function getAllSongs() external view returns (Song[] memory) {\r\n        return songList;\r\n    }\r\n    \r\n    function getPurchasedSongs() external view returns(Song[] memory){\r\n        return user[msg.sender].songPurchased;\r\n    }\r\n    \r\n    function getCreatedSongs() external view returns(Song[] memory){\r\n        return user[msg.sender].songCreated;\r\n    }\r\n\r\n\r\n    function mapCategoryType(int256 category) private pure returns (Category){\r\n        if(category == 0){\r\n            return Category.Pop;\r\n        }\r\n\r\n        if(category == 1){\r\n            return Category.Indie;\r\n        }\r\n\r\n        if(category == 2){\r\n            return Category.Rock;\r\n        }\r\n\r\n        if(category == 3){\r\n            return Category.HipHop;\r\n        }\r\n\r\n        if(category == 4){\r\n            return Category.Mood;\r\n        }\r\n\r\n        if(category == 5){\r\n            return Category.Chill;\r\n        }\r\n\r\n        if(category == 6){\r\n            return Category.RnB;\r\n        }\r\n\r\n        if(category == 7){\r\n            return Category.Romance;\r\n        }\r\n\r\n        if(category == 8){\r\n            return Category.Jazz;\r\n        }\r\n\r\n        if(category == 9){\r\n            return Category.Anime;\r\n        }\r\n\r\n        revert(\"Invalid category type\");\r\n    }\r\n\r\n    function setListedSongAvailability(int256 ismn, bool available) private {\r\n        for(uint256 i = 0; i < songList.length; i++) {\r\n            if (songList[i].ismn == ismn) {\r\n                songList[i].available = available;\r\n                break;\r\n            }\r\n        }\r\n    }\r\n}",
  "sourcePath": "C:/Users/chunk/git/Blockchain-Muse/contracts/MyGallery.sol",
  "compiler": {
    "name": "solc",
    "version": "0.7.0+commit.9e61f92b.Emscripten.clang"
  },
  "schemaVersion": "3.3.1",
  "updatedAt": "2020-12-04T15:04:51.521Z",
  "networkType": "ethereum",
  "devdoc": {
    "kind": "dev",
    "methods": {},
    "version": 1
  },
  "userdoc": {
    "kind": "user",
    "methods": {},
    "version": 1
  }
}